:100000000C943E400C945B400C945B400C945B4021
:100010000C945B400C945B400C945B400C945B40F4
:100020000C945B400C945B400C945B400C945B40E4
:100030000C944C430C945B400C945B400C945B40E0
:100040000C945B400C945B400C945B400C945B40C4
:100050000C945B400C945B400C945B400C945B40B4
:100060000C945B400C945B400C945B400C945B40A4
:100070000C945B400C945B400C945B400C945B4094
:100080000C945B400C945B400C945B401041787284
:100090007C1DEE04E93E92C391540C964EA2765616
:1000A00041DCB465FC191E7ACF18B776247CAFC941
:1000B000B22D05B3966254A942CE303392D9CD11F8
:1000C000EE807F57534D1ED62778807BDF7518A0B2
:1000D00064FF6920E5523E685AC8996E4E4C1CD4A4
:1000E0009186B019927809E121FE4C05A66B827CBD
:1000F0007CEB0ADD753E4E95E63E4284414CAA49B2
:100100000E551C281C70D55A0AF06798CA45C4E6DB
:1001100002B4F9546C85419CBBE954DF5C736F09F0
:1001200023E69CB40CD7D23A01DDD5E9E616B95BDB
:1001300031A4026800B5FBB46481BE470D56589ED9
:10014000E6CDDD0C6FA57CCB21473A2E8493BD43D1
:10015000C57B4C5217FB41AF91ED575D571EE7CC65
:1001600037A86BEFA0D16223DDC172258E03B15A8F
:10017000E4C24687F7366F91759A8146D76ACE9E5C
:1001800015C40317D24DA7FE5E01CBBBB1776463E4
:100190002ED9F16C3FF6EDC94590D36547E21E5A62
:1001A000190E5305029F97C1663D5E60A5CBFABB51
:1001B00002C6169CE0824399072EFE44141D61F688
:1001C0002655C852224AFE2AAD59E7DBE65E00E416
:1001D00067FB4C63ED9569B2AAF22520697EE33F87
:1001E000C56550C934F9FC6440DC811AF81184807B
:1001F0009CBDA1A8CB677D8D2427E2F749A16F287C
:100200007077CA0C3F632A77101B2F59D8A3284850
:100210006E7E1A99836A5793343BC55E1C6C3353C8
:1002200090F53837254606826A1C08A0467284CCB1
:100230006673A7B9D693592412602BC236A3490B13
:100240009F14E7D7793967233B2F73E388C48CF376
:10025000F742F86F1C4480779021DFC62AD6F4C697
:10026000F7746E20AD184DE47A1CB6D660A0D62B7C
:100270000415436BE925CAB8A7FDC1D73B9B92B9CA
:10028000FB56B0AC3D9E06CF4A0A872BDD4F9B271D
:10029000912DA2EF2266D5665289C4C46A8103B249
:1002A000E83049E6F87FDBD8F7D0F7678149F3D328
:1002B0002857F8BE3202B9A003AAA616823F242E00
:1002C0002A538780946B641E5BC8D651F3C0B9A7CC
:1002D000F6678826781BF71EE0B2FAD57C8B873C40
:1002E0004C9871BAB3AAF9E65A11300D33A17601D0
:1002F00081B74C4C878D05DC8EE8A63AA38FB29D62
:1003000051112CA3411D4D07D338DE18FAB0D03C53
:1003100009B61DD7B375D062746B5DF5A57B6BE72D
:1003200007AA7ABE8B941FCA48A832F127997F5931
:1003300067571B35F799E3EAD673AA6B17D9BDD275
:100340005ADD9DF935DC6447BC1F952238A687B974
:1003500066442BAD63FB5A3D4E02F8F011200DF3BD
:1003600034835B67BF2B652B5CD24C28A3D62A2B2A
:10037000D48A61AD302584F394ADD61FADB63ACBA7
:100380007D864221FC7D7F113A7808D2A4595973A9
:100390000F54FE3F58E72FB8822CBF6AF72A09BCDA
:1003A000920623E358D167D430C0FA0098AFDBF04F
:1003B000B4AA8F2167D4D06D782874CEB1A5A17C62
:1003C000302CA94AC9AD1E0F7908894E5D82CFB97C
:1003D00091D714FB0738F2F107EAA665B16AE9A1E3
:1003E000886C102E68B056BAE886DD57D48D162B6F
:1003F000A1A82E91100D03AA9D39E4E2159FE5E115
:1004000038309AFAF814EAC11FC9267D4599C7DF2A
:10041000F2F40DD6CEE70D5FC4669229ADB5443235
:100420008C882B80CF7BB71EB5CA8F92E57E38E2D1
:100430001659408FC7F37892DCB2402D91FE1BA570
:10044000A9647B7A7EAABF6EE1544A84113736AB29
:10045000140A2E43E183CC76BAF3A8C3C7783B983D
:100460000BF4D6FFCB520ECEE5605F1A7EE4A6E316
:100470007D74349FB64972A544143F7A1160C788D1
:1004800044DEE64C67B557C6B6892732AEA37B5D1E
:10049000B04AB2107937AAF12B9EBD670620366F9D
:1004A000F4A278937B8AC4D8C50FF4D0D9E021FD9B
:1004B0002203F00FC104A46AA5B4ABEAFE53B873DB
:1004C000AB14585A34127CEA080F95245070089BDC
:1004D000B93450018F92AA82ADD8178615E411B0B5
:1004E000EBDCBFFABF14BE298535D6129072925844
:1004F000C9CFD6A536F63EDCC5AE040862E77D4D11
:10050000D7AD93B845135C886D8CCE6A15701FC645
:10051000331E68563CFB8001B478DBDCEF79EEE3F8
:100520007EF1B5918C788764BBFE75603F71491F81
:1005300035361AC24E4B93A687DA21D04828E73ABF
:1005400016927C87E430D8157B03A12A497A7A5524
:1005500042934357DA097C8784D9754F96FED07051
:1005600090A0BA02169AF8D9A89FC306AAE44A1C1A
:100570007A35508CB60EF0A442D8CA68E8C7EDD5DB
:10058000964804A61CF24D685FAB784F87A2E67EC2
:1005900021997D93548CCBD0954BD5529E8C343C75
:1005A00046BFD9F59F825EAABCDE5DC595C6095BD4
:1005B0001033D94AA1829B6AB1E554489EE3373F84
:1005C000083CBE60603FA497582B42C2D7743DF1EF
:1005D000E292FB806E50EF384357FA3209BF4BA0CE
:1005E00010CDCE2FE0536217058423DFC6DFE19FD5
:1005F0007D30DB3A15E6BFC918EF173CEEF6E1CEC9
:100600008AB57019DFF6CA850C45F141A28897605A
:10061000952026CC801A1B6D8E3A8D8B5AAA82BBF0
:10062000C79DBC27B4BE41D1196D0DBBB969B903D3
:100630007C2A7DB719B7610A19AA471B4EBB0E70F9
:10064000EE183FC186D107705457FA51A02395E4A4
:10065000833ACD302AEEA924E3B15A596D7C039830
:100660003E21E14F62A12236FF2A838ACF8213FE08
:10067000F289AD6ECFDC5A1B0E1A22087EBE664987
:10068000750740C89C4B62B09B97AE85C64553B278
:10069000E9E1D6A7218357CEC476F2558D08A4810F
:1006A000F49F55BCA0FAB2271CA80D8239735ED105
:1006B0000A4B481CD1ED722E6A7B03F3FE2C4AE6EE
:1006C00015F2F60FCABBF9D209A9DA609024ADA5DC
:1006D0009D26F5DA520B9328EA477DB34C403BC088
:1006E000A139B360B566851A784ECCC46AEC2692FF
:1006F0007343B276C6AC45EBEFC2DC0BB111C2A0BE
:10070000ABCEA1233199FB8758B711DB9FC0FB40CB
:1007100005674F8161B1838DE12FE807DC06426FE9
:100720007C66A5CC8F631ADA54A51E5468E393A3A4
:10073000DB7C9D90E7ACDAF21062305B8DE418B898
:10074000EFF7DF95357A4EFCB1C0195DC6C07798DA
:10075000087C40FE5DEB3CCCD781687686F00919B9
:10076000CFCFD8FAA059349C7EB2AE226572423DFA
:100770003D97338500FF98B1EA0BE19E7D64C76C1D
:100780001547A534CDEB80B8AFAC575FCD64FCA75F
:100790002FFB735EEB116408D2C4C87050599D687A
:1007A0007A564576CC5BDF340F768AD20024518EA0
:1007B000C51B44F8B13E80E6C532A98EF6DD6FE177
:1007C000D994779A192DC1D1546A9C36B67ED2B08D
:1007D000FFFE138CB56F19D33096DA6CA7EBD99363
:1007E000C12D880597CEB95E9855F42083501C32F0
:1007F000C6191079DB124AF089B6A7C64F655DBCF1
:10080000C997C985703EA22287A998694DE4ECF684
:1008100028D8C439D849CFC0887072AA3FBD92B2D7
:10082000F6194F157F3C934C07EB7971CAF54BC90C
:10083000007F8ACF800F5A0601066210187D0401DE
:10084000283DA35173C201A7C210172E2830F365AB
:10085000DEB7BC1B87E3A5DB5E0C6B1C28E8AA1F78
:10086000881570AFDA475336765F7838FA76E51E2A
:10087000E6B4C0A999512A085DABE1B64A962EDDCF
:100880007BB30E7DB755E99B7E041390869B645322
:100890005B4A9ED9CCF74B5AFEAA58C0A24508E63F
:1008A00019025ACA36DA5804BB324347B951E885AF
:1008B000590DD0C256B7C5943F518A38A92CDAF0E9
:1008C000816247E0C0FFD09EDA388AE0B890270AFC
:1008D0008E7F44C5AA39CFF1AFC65BABA159B9220F
:1008E0009FF4082E95CAA32B028FF17771C5D98684
:1008F0004911C58732A9B9250599CD445670A27D05
:10090000A33D3132E534C336B4F94B44E4EE4A3703
:10091000861C7BADC0A6759C7919FA06B88DADFC16
:100920000C1D2C494DB40287C2480B228E2DCF1AC4
:10093000D9CEDD9D9314C66ADA02C26FE718BF1FD5
:10094000878182DAF99F7368CFB8B652AA80755052
:10095000E2EC2BF74EFD51D7857779E4DDB07625B3
:10096000DE3267F20DE0766631D8B053EEF49AB518
:10097000710FD933F46D79959A3AC583D259ADB6D2
:10098000B2BD9502224B5290D5DB47FB8C616BB018
:10099000DA9A13A36019A21C51A04F4F7334EB8253
:1009A0000AA38BF7B86027ABA219F6DE650BD5CD8D
:1009B00032B8566403FD7DDEF7569AF0AB101B8209
:1009C000E0899754F39EEDED3F23D71FDDAFE1D8CB
:1009D0005E774E2AF1F7655F79D3BEF81871A5F7F7
:1009E000E0F212FA9CC4FC90DD79555398FD798FA2
:1009F000479C28A45DCB8D6F93EAB5DDB9E35745DD
:100A0000AD9EA9EB6FF0588A962973FC2786922138
:100A1000577A7E570B32872828B72AEA6A7C1BB19F
:100A200032DAACA8443DA49BC4FA7437731E49550E
:100A3000D9027365316EF2FA0C01100D4195245301
:100A4000ED3BBAFDEB00DA107A4E48E261989A73FA
:100A5000D2402540A3322E3AA84439D1FE69904CA9
:100A6000DD9D13883A6FB2EF8693D3C2D37D17F121
:100A7000EE951A00A12731FB957CDCAB24DA61AE40
:100A8000E5654786F2971F0717459738AFF972A3B8
:100A9000C3AACC02845CCE0C0731538E4642C68872
:100AA0000076E19E5507C19EF4DF543EAA0087B54B
:100AB0001005C0EADABD0E95B209BA954C6290D520
:100AC0003D481BB4EE192933556F700ECF329E4846
:100AD000EEE6FDB1F30A12DC9547BB7CEDD8B363BB
:100AE000471DAFFA62C36BDB9550D652CC42DCB2E5
:100AF0003E1D3374E9D50F77F0513A19A12B181E1A
:100B0000190172934140A7B8B0C17EE631489FCC2D
:100B1000756054B92B6C00F7AD16124CBEA836E9BF
:100B20006A8EDD0E0F6468B098C88BA76892991B17
:100B3000B3A009312D90A3392F586738E1784DDCE7
:100B4000AA18B17D9D96FA0D51579C87594DD4F343
:100B50004A3724A66759E96282B0649FE4DD1F86A4
:100B6000B1687443704FE9BC6D4B3350D3F3FF59F8
:100B700093D8003C309AA92766ABEE211BC002B681
:100B8000AF5EB50874A9915EC8AA1108E3BF9D5D68
:100B90003BAE5B4EA177C11BAC0F6E1D27AF7A1920
:100BA000C1D4B168B52B9E34B7D8620B17E9754034
:100BB000E2C3A186C6766CDA0784904E74F50F7D89
:100BC0009C82E2311B3CE456479D53BAB1D0621976
:100BD0003EFCC8BCAFC668E9E8A9792FB72D492FFC
:100BE000BDDEA6961CB083F5CF53EDE3726DE42C09
:100BF000B34CC2EC2E92A867B10E7CCE535D33A2EB
:100C0000A496F50C0A7D09E70F91C1CA62F4D52AB2
:100C100028E2321D8127554BBEC612D3811EEA2D14
:100C2000E00800B23FB8107A2AACB87E406265C5D1
:100C3000E0C4A0799D1E35036AFC6FD6D6BD2AADEF
:100C40007178818CC7ABA9AAB0C149BF4364B0F623
:100C500034F33ED5351B78DB53D5981D2B9E955527
:100C600037BE78868A39502B81891D99B17EC19112
:100C700038337986F3F253936103C5230D9FAD2773
:100C800013D10F5D1BBA17E7157ED7263D23C199F7
:100C90001B359C7C547758B295F07DF8F2FF3B19D8
:100CA000385EF1388D52F02A7C767C0A45A0943863
:100CB00017F057C2BA090E36F8A41024C306DE9402
:100CC00091F7BAF2F7D7BD0019B9E5E5CDBFE3B5A5
:100CD000A16760744A5AB85271DDF017653B5072D3
:100CE0005EF1C11E24A0E6517BA4CD8BC34A4A6CA1
:100CF000536461EE476D9E5FDB8A9314DF690AA936
:100D0000D91C16A6DB2389C6B866658A9BD26837CC
:100D1000BAC1AC5F7177DBEFC42A1BAB0CD59BE784
:100D2000632AF61F6B1B430A3D095E3B508EE3B6F8
:100D3000F0DBB47D609A8267837DC2A7C787F9E53F
:100D4000742C0859AE740609F42697A80B259E7DCD
:100D500027F4C1730339022B3D85A67B0F8B5C43BF
:100D6000B5983C68E893F745B2997D8CCE142293F0
:100D7000624CDF7DABC235F24E9C5DA4527828BA3E
:100D8000828E59761535AB7782B853B162FA38271F
:100D90000A732F60CDB4757466C6EFE54A8C514D69
:100DA000E2227E8CCECB0AE2AA92CA0F7D2E612669
:100DB0003B2E703341262EBF1BABA3F74E0C39F5EB
:100DC0000133594F2C593BBA9DDF7BD8FAC6BAC7BD
:100DD0000F7118E55E95AB1D45D4BA325178E7B76F
:100DE0004FB34F717A0DE7494D03F21ED6334A597E
:100DF0005CEACAA2B34F38536CEB8E290D0A44FB50
:100E000048D4F52DF273A0FCCD78C130E562E173D2
:100E10007ACCDC0530AA84373D7A70401CCEEB4991
:100E2000F99B4BF17F6CF731FAC607FA7C0F9625D8
:100E3000323AAD57BC67C8CA2A2BBB87B1002C32E7
:100E40001A54EEC9EA4DF3F3E117674E0EE47752F8
:100E500079BA36DA144E7EF9C41AB0ED588157319A
:100E60006E3462FDD50933C8DAB3823143948E0003
:100E70004FD6AA70602A9D3500FF9144EA57FEAE16
:100E80000C11BE3DFA1740A830ACF96C7C2B1EF754
:100E90004909763320C793FAD73480A02CEA1B3354
:100EA000CC563AD9DD454D98B79D93E1DC112452DB
:100EB000197A98612557081C4414118065E1F5E4FE
:100EC000CC25C617116E79264F6C344F034900FAB2
:100ED0002B68679F755B7E65F4B49702D53AF63947
:100EE000332B00030F12EB1D38AF3196B16AB9D81E
:100EF0008A4C28DBF33212F16F0B85C6B9C0D80DCE
:100F0000BA24E49BF7F01F1AD04FA8CC1E369DC31D
:100F1000E0BF4BAB6835BEAA7948626F86A8E0D2C5
:100F20008E4BEC346FF6662ABA8972DF26DCF1C686
:100F3000616C5D883B0CFB63B7CC8F68C2C1C0C7D6
:100F40006D7CB0F19F494E6FB201FE8F44EF1F08D8
:100F5000715122E57F187DD0C374BFEF8E78CF69C1
:100F6000366DA47808A60E67C9939E07045DB0820B
:100F70007F9A278437CBEE46F772556644D2B3B7D3
:100F800079BF80DF58646C786FB69C94903422D51A
:100F9000D6EDF911B21BBD6C37083854D6BB7B892E
:100FA000BAD5C5914F576578DF6C032810E7D66036
:100FB00082F40C8B1021EE6DB596E92652F48C2D3F
:100FC000318CD7AC9F3CC9DF6E582B1FD3B60EECCB
:100FD000CAE5E1FCA748D94DF55E0BFFD4190437EB
:100FE000B6064349D46A209643A801B0F5524B7225
:100FF000D6F3C1C9EF9AD6F5196CBC635D3DD10338
:10100000B151C9AE9A8AFAF9128DCAB413F16E368B
:10101000D97C8E9378DCDBDCCC2A2570A2E219EC3B
:1010200070ACBF67851B75EF58F326A9C79B39DAEB
:10103000EB1F0E297B823BE9225B924B8C5D495C66
:101040001F4439D86D4326EA8B4785D8A721856888
:101050001207A7340482C0910D20CC0D7689AD17FC
:10106000625DC6590C714C2F8AE7BE27A6EBAADF3A
:10107000B52D938E40CCE66B30C430A1F40247B955
:1010800000ACAA781DB257BB4A60708CDE3BEBA265
:1010900096F24EEE400B79F70C2C15886E14DE8319
:1010A0002F34D610271BF50C066FCBA7558455623D
:1010B000E557284A789B22AC41B55FD6CBA6E6150A
:1010C00026B67D1FB1DCB1AD0C33DE3110FCE92B4F
:1010D000A9D59CB9185DC5765097A3B11FA800216A
:1010E000E802690B566CE7BB667F91E46C66AECE96
:1010F000E1ED3331A70AC9E790EA7F8B4AE6CBC31B
:101100009D572445FD46ECB68C071EEAE0EEFDFD3A
:10111000D2A409651250ACD7A3C251CB65EFE2E768
:10112000CDB0C4817B239BB6D0721D9DC072F88E5A
:1011300051AB3896C9E95EF06B54C4A2DF4CEABEED
:10114000262C4E6797228FEDAD9B8635AACCD2A672
:10115000616BD60261BB5B9C5B5517ED9E51665778
:1011600058C1B3A3FD4EE4EEF4BA4AB6855F6D23D1
:1011700035339A3ABF2A545913DFE6F458EF114732
:10118000E712CC3E021A66EA126A683A80DFC75854
:10119000F275E69B1F29B6B5779D43CBEBAC35378F
:1011A00043519D4D8328B65949D7109316804F70EF
:1011B000B509E9565D24EAA6C21A17A672C4FF76DD
:1011C000AD046F70BF81A2EC5F46EF6D1276000236
:1011D0009C0F1035FA097B381AA840E5293A8B7D17
:1011E000B875084E009400A1031511EAFEE2318E95
:1011F000437C77DBC2D43819CD253F07BB1CC741E0
:1012000061F5901F9DA528D2060E55F0678EFD6BE7
:101210000E4C5BC60385AA6AD7F3267D5FEC69AFE7
:10122000EE3F0C97FD6018115F5FCB8A49D4108F99
:101230000B38B4C752036DCDB54A8FE90CD04916AF
:101240000178E8E1894562ACD6FBDCAD279A733FB3
:1012500028FD537AAE911E163CF76FB819B6F02CE4
:10126000024AC74E4FAA6D1FD9F21EA871DB8081BA
:1012700061DEA31824389D5A4F083273C52FD677E4
:10128000F9B3CFCBE141C3CCDF4BB890EFB4EF77EC
:10129000D4642FFADDD17BFA5EC3C18DD59761E7A7
:1012A00058A4DBCA725934C1F48214E13053EAF213
:1012B000210C7404D3951FAF4346D790DA3ECDEE90
:1012C000E3B1A2B604B40CCE569376A5262904B495
:1012D000C769DDA6ACEB3FB8E91AD75669B8A25387
:1012E0005D9B721BE0B772A29CF257B7F1DB8BB526
:1012F00072ABA89C5F670CEB32410EB049AC53ACAB
:101300007AA1E7DDF81ACBC559F97646E552D6330E
:101310009598611D1EF80BE855F8B2A4875EED257F
:10132000F65FE21FE5D9EFAA170D6BB95E06F33041
:101330000217C4C47ADD5A80F458A9F4E4E1AF7E00
:101340008E652F800E429B55F72B64794AC02C1E68
:101350009CB75A54E66BCD32F7BA32AE157858F3D3
:10136000558C44B52FA3F00F0FBE00DA7EBA814F23
:101370001A8CE5BBD70F8657A49389DC94F26214CC
:1013800066137A6CC0B961A8B45D3EE0AD89C45EF5
:101390005474E92DE2B838388EBAB89EF224CA8A5D
:1013A000D85EAFBF66F2ED4A7E696150AE8DEFBB8D
:1013B000D8EAF67AA96A50750B6BDF8AE6325EDFEF
:1013C000F2A92B27A78A97F0851E3FE3B56F542516
:1013D00046B8C46704ED76A4478FBF61BDD5D95A1E
:1013E000B024B094C41B514E8BE657F7BA7E6FC041
:1013F00018780660D287A8B99FE532725A92A20483
:10140000132ACCF49B1EB290FEE750371F9DB0DE2E
:1014100008052770703247C5D0C05BD9C7DD6B4F58
:10142000D566297915C89AA45DDC969C353F6F185E
:101430001F95850A2FE8992018102C92201D5167BE
:101440006C1C2422E5D9E1CB9C33B5A24819E5D127
:10145000C108DE0E0F47A6F8461DA04BAA5C706BB4
:10146000DB6CD6818F862C568086ED841D7CFA122B
:101470003C83BB23C30746D874C82650FF0325C648
:10148000B191592B7046DF082B3992D7B2E36D41E9
:10149000DDFCD5E49CFD9BA191B7944D92DA9CD1E3
:1014A00006208155A6413339E15730F0BE60B3E1E3
:1014B0005D5AA6E81486C5E5BF3BAF58B9BD65B116
:1014C000413341035F4B62AC64802B7D96A9B55FCD
:1014D000F47EAD31FCE2B003F624CF852DF4A10CEF
:1014E0003E1003F75F8CABDF2B78724D1487710EC3
:1014F000E5D521921BF01A33A82242F37ED2980838
:101500002EDA0D00E55AA6DD1D8D97563281D68B59
:1015100088535F8D06D71A4342A90651384893FD78
:10152000F7A62D8E780251FC7DEDC57E7EC1703709
:10153000B63427B264C55485994A032F5B6EF14ACD
:1015400091B88F1FFA3632BFEE9C6E02C2BC847017
:10155000B5AC4112AFAFBC8328D629E3BC40119C87
:101560008DD0A50B28EBEA8775571DCE8FAFD46BB6
:10157000D2315FDFD19314C15D50B68195B3397715
:10158000D4F669B8F6FB821EC9E33F2E12B5BD8FB3
:101590001C2017E244F03CAEEA073016EE9D938221
:1015A000A0F0135F00CC9DEBA48257F3E44C58737A
:1015B000CD0B428F0FAD37829A9767901A1C13425A
:1015C00055A163A1689DC31199A47FD0BDEC282CBF
:1015D0006FE03A0B429B701AE5BABB10401F5A5F8E
:1015E0002B94AB638C86A4221E7FBF19F75DE605A2
:1015F0006E9B841832CBE5C9B9597700FC9D61A375
:10160000E4A4A4F5CC8AB1751871B0A8F65E774E43
:10161000060E915A6497830194DAE08ED79326F7E9
:10162000872BFC36B7F018A293F773FCF619FF115D
:1016300029C7EC6C65E4A0E0146812666DD26E2CCC
:1016400057025E5E4002C869EE9FEF89A889E9A74C
:1016500035E4E399BF9084E6E05C8F0CB7D9052BA5
:10166000AE1EC8302B9482A7D2F9A53AF0EB13D066
:101670005431FAF842C9484D47E98F7434430F3268
:101680007B297B5F6C87D3FAE978B86FF7F1351C5B
:101690007B4EC9D46D454E14720CB31D6D669B7D97
:1016A000FDC504E982546791F5C4316082D6CD1539
:1016B000D0BB36B3B634E2928C76631CBF9DDD336B
:1016C00030730C92C7D75AB42FF72C2D096E15A979
:1016D0008188592BCE32AFFA67CD0C6B84B5A6CD7D
:1016E0009565120308BAF4C2FC9B862781F9DA20BB
:1016F0005565B38A851EBCAB0B5B7F167A1F036AE8
:10170000DE8DF22478966350FB4EC7670270FE1E92
:1017100036EB239DF0E22487CF6F0161FA70FAF770
:10172000B6BE4E08D2BCE007705F6302C69D7E4421
:10173000B1D00011B18A24A72AC95B1EBA8D477E99
:10174000543CAE333550EE433041FCBD91F50CEEC8
:10175000DC2937A7B498B6487054EF698D74F4ED5E
:10176000437549ADBA31460A7A78059AEABEF72F31
:1017700038B2983346EF7F16083AA11ADCC7AA752B
:101780005984D9F9DD57446A118BBFDB5A0E6E9C20
:10179000C5BE1044D07090328ACFCC6AA175AE44D9
:1017A000CB0F7B87D20534CA02B457B2F412E0677C
:1017B00090025CF62ED04730E153EF3B618494B643
:1017C00076B1D0F61DD0E3E526A8A5A77C29FDB00B
:1017D0002A18FCDC28494C5F2161F8028041AB12D9
:1017E00099655DA51283ED37BD08734DF5BE11D324
:1017F000B67603AEFBC690F4FAC7818571B7076968
:101800004B6DEA664F75B7B4253B60D021501CCDB7
:101810003D8263DE7A1999DF3468BC2FF7FAA50D93
:101820005A4D1D9B1936A9A84C395D8D23CE0DC08C
:10183000A58EBA9BFC5CA47266D011880F7B4E5CAF
:10184000EBE205800C3B03F6094295F376CF6B7D06
:10185000E9D8F6BA53D2963509F6A4333A2C70F586
:101860003D59862462B8A4A3FED574066F6408F8B7
:1018700016CC84BBB0E9B34C083D0541F6A6A118CF
:101880001B7239A0E122A1C03C3636D1C50AC89CE2
:10189000F7A5FF74B377B34CEE7B6773EE1F71153A
:1018A0003CB2C874B945A6BD9EFB6FBC8B0FDFD59B
:1018B0002912AD9C554544A2B07D6390A450566654
:1018C0004FF1362007D13C1F192141CF470D4A5F08
:1018D000D79412CFAD57A35C81658E66366EC1ED8D
:1018E000463226AE81552296A89848D3876FB2AE6D
:1018F000ACBE023892D949647838037FBC90EAC400
:1019000070F3E6E591BC228B3DD43513B5524FC739
:1019100022DB96C8164BF677BE4308DAFF5A42CB55
:1019200064C4F7F1C2F03F42DD0C78CD6CE0F5A362
:10193000ADC729721EA12D5ED41CB363AE093FF65C
:10194000A8F29DCBD4A404A701D287B169F83EA820
:10195000D613CAF99D62F3FB68D88EF13B83981EBB
:101960005B022D9D83ACEE25A1B9255B6D49F38A01
:101970007EF6B0E30F7449FEB2BD952A239CF34B6B
:1019800064D8FBB40C4CA1EF2FD91338393B0A3C77
:1019900007DFA1DB61BBE4135B1904F81BFD1FE447
:1019A000A067FB25D51DF68BFF779FB47A32C77AE7
:1019B0001FE2530D3474CFD67757F06326287F3754
:1019C00010417A79181513FED4AFD78BF1004C89EA
:1019D0004EE95FCB18E891E98A4D2E29D91C17C32F
:1019E000B39988B11CAE20B443A19F56B5E7B59911
:1019F0008E9CC7C2F414B1CDDFC4495B102C7A6C45
:101A00004B9C39D8215D221C7B547F8CEE09D02061
:101A1000E26C276C785E65CA1FF25221E427CF265C
:101A2000740D7E3633734AC5B39BBF479BBDC61E3C
:101A30004FBC89A0A322C26DEDD522CCB37C8FB65A
:101A4000D9003C860218CD711837A042A8E25C622A
:101A50008DC9A370A2A52314587EC77D057356694E
:101A600023DED4843A78A82AB939E48B74E3551F6D
:101A7000D41CFD5CDAD859775943AF2A273FFC3A8A
:101A8000E9F8B5C771793A2E418A4460DBDF33CD7E
:101A90003A7CABBD9D53B2B198A2CDC875A5D6A175
:101AA00093D294DE9C635095F14A364B119AE1CE65
:101AB00059BD6BC59D1D5CD2B26B51378F824C4AAC
:101AC00057334C88674A26D555E1C8C331E85E3F95
:101AD000E6514EC7CAD1D87D68AD695528B27B1F83
:101AE00082285FF41A934068F40D0C258EE7417745
:101AF0000486D10BD4260A9CC74A0225069A12B442
:101B0000C4D94F7074FADC61155E94B05B492A7ECB
:101B10008441EE9E7860049DEF2E3DFBECADB395C5
:101B2000F7BDE799D62C708A540F5C192E325406F3
:101B300081D585AB55CBCE3DA1B5518B7D414F3481
:101B4000939B52DA7FADB77183F999926E4663E247
:101B50001DFCCF93FEB0D22459919FA73480131A55
:101B6000D255822EF1E5787DC3E6E2CB6F25F9FEF2
:101B70008DE6F63803351F97D13217D73A308913DF
:101B80004975A666E1CEDE8F0151620FF35B90E8E6
:101B90009C2CAAEA9F30EE78BF51E462A59AE7B97F
:101BA000B68E2844BB7F699B763F6DAEBE3DE68412
:101BB0007810CA2D31C4B37F0E6176E443EE4546FA
:101BC000B54D6CEBE31B37779D5ECE72369953BAF9
:101BD0003C8257A698D3597098684EA0374058BB9E
:101BE0009E52711277FDFC05126622AA8A2B29E902
:101BF0000661A4BD2BE3E8F2AE6CC24C494D995787
:101C0000DB31663AF0EE0EB16329CA7A3C03744ABE
:101C10002408EF1A5E950D3048BE69874B9F5032FD
:101C2000C620C87C03BF9D259F5EF3A9C26813F13F
:101C30002716D7F8C6D58A96548031893E21C4E646
:101C400070DBF2192D85F2D0DE11B58422EAF0178F
:101C50008978715381C212C98BD4804AEECBE1C618
:101C6000B7B928A97C860E2FCC698B3EE24DDF39AF
:101C7000813F4117ADEB3411BB9737843521161DD9
:101C8000448D048A9A9F12C323AE53CD8D8DC7CE47
:101C90001D27C3ADCCB2B4F986B5C933E71121D93C
:101CA000911572A2AC6688EFBC4D566C4615F9834F
:101CB00056BBB7DA8BA112F7A6023A3977595C9D69
:101CC00075DC6B0FDC95E5042805C7477FB82B331F
:101CD00077BEF3BFE075CD080213AF808567B44AC5
:101CE000F227C2A28412C13D9F8D5660E15D578DDF
:101CF000E9E3071864B12A75CB94C581A05989DD41
:101D000046EC628FF8650B9EDF5EEE902ABB616F3A
:101D1000A390EB3C092D751D5647C974F4585A57CA
:101D20007F619869E53AE730F2ADEC8DDD212A95C7
:101D3000AB62D41388424B7E7EE34098CFCA169C98
:101D40009631B6FB831F771D9CD2408F0AC369AFC3
:101D5000532D1B2600C2BA6A2543EC4C8DF932F391
:101D6000DD12CCC327BB9D36D006259E6D91932AEC
:101D7000BA74BDD797A1B69A6B66EDA2D6A10DBA7B
:101D8000EDA559D569B666E37E9F84DBDDE2890E59
:101D900089EC8BDC813E285E130F9D7566BF2F9CFE
:101DA00086433CEDE98B78EDE02DE3B6E0AA577869
:101DB000E1074C910C7BBBE06B4D5F8D452272FCC3
:101DC0001323DCFBC31463B8B1CE4F55716CD842FA
:101DD0006B58AB19854C7E096ADCACCF7CB9A97E07
:101DE00020946E52BE4CC6C796782933E74EE99CC4
:101DF000FAF84E740AF8CDB534C4D57DCCAC58424F
:101E0000B13B0EDE5A00A5EB67DD1119D285616585
:101E1000CF12CED8FDF3B3431B2BE1B375B81A94A0
:101E2000D87518FB4051DCF1258669CA32972A3BE8
:101E30002146F1999961EA5C6C044C992B759BE8F9
:101E4000EAA006DFE08E92D4FB3E4A9919723EF773
:101E500021EE2FCB3E1E26A0733AA2B154113FA80B
:101E6000CF068C73C82C49FDC24B9D0C204BA8B6E5
:101E70000222E0916C9D239773F9465C6F4CC67B00
:101E8000A4D7521E53C7C4663870621E9A6B4A2389
:101E900087FA4D6DB07AC8553338C3D6B2BC56A454
:101EA00011DF86A2EA4498148D33C1C4367146FF0F
:101EB0003475EA9840B5B8D0ED075BB3ECEBC5D10B
:101EC00068CCA5878D9D89839D5A62DCE1F29BB920
:101ED0000DCAB9FF70084A451404325247AEDAB64B
:101EE000D4DCD7AE43620EC3201C07629EDFC46EF3
:101EF0007AF70301D3D2DF8100646DE485F9C986E6
:101F0000B82FCBD59F7D7B62E0DD40493B335A192A
:101F10000FEF71124A6FAC9178869DE6B0EA3A866F
:101F2000D7B7509876CA7356D88DEB1A9268456F1A
:101F30005C5A8FB6EAE892CD775A8955B4B4B37833
:101F40007F8C729BC48394BB92A2F4DFB99AA53EA6
:101F50009AD6FDBA1E2A40757EBF2E2B431B5AD738
:101F600040403B780170E8CB78B138D3974539BB16
:101F7000D15DCFF9F0B8E79E04E85537BC675C0443
:101F800044D33B8070E309807A5FED4EFFC46CB3AD
:101F9000DCC97E9A918AB94AA93011CA806D562748
:101FA00074DFFFD029669817CF040B0327E22A0EAF
:101FB00018CCE724DFBA6D9698D2AB3CBDEFE62D86
:101FC000E346BB703E2EB3F738605667438C2790CC
:101FD000CE05FEF67FA058011FF65D9616730483AA
:101FE000CC67342E788931758A90692594AA2B277D
:101FF000610926E162286AD5AEF52E8F33BCE35D18
:102000009FADAC9819B4A57E1066D332176A42937F
:10201000FFE3A14202914D95067EC83E5157283AF2
:102020002CCF8DF1F52F77E2315A8ACD7FD6390446
:10203000B4F946121527ECEB575239CB3458BB6F25
:102040007C480CCBC2CF8B65DFBC31D156F0DBD2E4
:10205000BA46D0383345AB8D8ED435460F60B26A60
:1020600056F6AD8012B59120A3EC627E6F651AF929
:10207000D6AA11E7CD8942FAC4337F728A8834D94F
:102080002E1E39C13D0F698E0D75DD17AB7D739F17
:1020900013A596F5C055C791D9CAAAA1B2F7651F75
:1020A00013A12808810E2E8D8DBBF6C7EDBECB90F7
:1020B0009B76136B353D77518A02DF4A081B986681
:1020C00089251BE7754D39A5B005946016D94B7F5E
:1020D000BF7062E292DBCF09968729CC0D16B82E2D
:1020E00044C36A19CDFEA8A1CE8639E10A9E9100AB
:1020F0004C3A69451B0CD65D5FDF2A1BBEABE199EC
:102100003318FB6C2669C5316A1A26750A87001FC9
:10211000BC177AA9B8868553C6309311BB12727D5D
:10212000D3FF9F7C327C42171BB1932E29D0832290
:10213000B418C222A375B027CD525F42F178F2BC29
:10214000433DFC33D507581E608D1F54698D5FCF0A
:10215000A8FA7B7201678E30D9C8700921E600A306
:10216000FC9F7336588DBCA7D0F4560E97933D2B29
:1021700006725A4D8F99504ED9DB4FB05357792A7A
:102180007BD0FD36D6D8662EAE70A539AC48D87354
:10219000ADC826469CEF0A79176A6100FD47FAA888
:1021A000488AB06E3CC3C57D539F5F6790D97D5B05
:1021B000EE0326FCA634E9D71C164110C64C5B255D
:1021C0002D8DB8A2D584DDBED29226D5871766DEC6
:1021D000056C671EE067D2C3DF15E9652926681420
:1021E000A5FD1E921464F69A92173E1A3DF84A24F1
:1021F0003FED0C145D122B1095FE17A1C9B0D576DA
:10220000724110F60292076CF72B666BC0DCF9B1D5
:10221000D407FB4E9D4AE822C89D9DC78888792E29
:10222000FDEB90E61ABC7BF335D2C35973D3042A75
:102230008CC11293162AA0FE5F3E0C14677706A687
:102240007AEE0C816709DF8F8EDEA2A630CFF5779C
:102250002A6B0FBFD5D40592D1CE1DFA9D11E3FE96
:10226000A5F9B71DF325DDAFBA5B3B947270F4A5F9
:10227000C90DB1A308039DB930218467CCBDC4E763
:102280000A754CC2D8FF3F4F260FD31F0771A743D3
:10229000B83B0E07AA38C991081B578ED4857542E2
:1022A00020A073932E83476850782ACAB633B211A0
:1022B000B32F5DB1BCE3A645123C63F43EDE096773
:1022C000835ADC0EACE990BC21A9C61E5BE1968D59
:1022D0003DC950244810BD948908063EC2249B9BEA
:1022E000A993B4152E4C9359F8FD2E0277BAA0533A
:1022F0009B7B0FEC906194498C6E0C9EC0803DCB13
:102300003D9AC00AE98847F139424F89A866DA2028
:102310004F89DDFC56454F2D9E146E1A84123C36B3
:102320006BD09F22C1FE14169FD42BFA0A314A2C7F
:10233000976A391AEB2F3ED9A444B9DD30B9F1F5CB
:102340009F602A0C79741B20E8A0E0EE9FA109068B
:102350008A960D03945D39A480719D6DC72E8C9271
:10236000298F4E28863E0DC9513A120921D1E69394
:102370009841B88E0753376531CABBA360A06D0B77
:1023800037272AC72937A57D69B4761CF912FFCFF4
:10239000B49BA066C850A832006CE6547210D3D823
:1023A0003F683484956464CF0B2676E8E2070A8F91
:1023B000369C41FD030C3805E0D63CAD3EF0466549
:1023C0004E1B9A9F4835FBC1426AD5FDC94D4E7BD5
:1023D000DDE433297A9D1A3D6BD24B1E30E1245542
:1023E000D5251BBDF47547268CCE3213E5E98CE06C
:1023F000E82C7BEC79E33F28D10B7AF3CD92DBCB51
:1024000063EFD42FB5C0981133BF659E76D3E1D664
:10241000A7D00EBC5B55F0E3DA50E78F5E70A0DF0B
:10242000BB5B40C69FA7F3D309613A38BAAAD24D25
:10243000951C5D5A18904C5839C2C2C541416F6A0B
:10244000CBA523F20BAA36AEF6E4C88F6E63937D5C
:102450005D15096B9BA9CAC7C1160AF65DA2D8A271
:102460008B6A9C9EA1882056550B5980E6EF171D5C
:10247000341D5A3774E8C9659D2301CDC0A9FAF20D
:10248000363330FBB4710B494849954453BFB3AB65
:102490008CAA908A2AE23C7E1B025A21CAE927D0E4
:1024A000FC70814649C7D8D55012BF626ED340BD7B
:1024B000DC465A0D9874A7428D0D75CE804594B2B6
:1024C000046B2C1891C36411039E26C9BB1AD4AFA8
:1024D0000069AA05ABC2DFC1E4289EC7BD20F8AEE3
:1024E00028D392539F940D28476E3955438FC7DEEA
:1024F00023EC0D5EC54EF35BE61C91DDE9ADFC619E
:10250000F71143454B5FEC2561CD1A1285F4E4C405
:10251000D564B044260EEC341C53A7202C5E49E44D
:102520008EC85D6185C4DD6D64BAA378E22DD5FCEB
:102530003304C9F07F7715BE76B2ABBCAFE9F44285
:10254000B29235E5B77D74026BB6F0D9AD2C5AE383
:1025500079674822DFDFD213B637547E40B11EA31D
:10256000AAC474123CA9723A52DB1939FC30AA137E
:10257000EE2C7266081D204E94CFA9BF164B85C85D
:102580006725AB566D29C19B4F1D72CD1A54724EF3
:102590009EA30D21320E747D8123EEE20DEB07A187
:1025A00087C17F3280DBFB35CFE3411E350D16FB43
:1025B0003BEC2F6F7F27B86C0941D29E621BC78D01
:1025C00062124BB5A456B66D4C3799A0C9E1B486DA
:1025D0008AF31C9987C62A6A0011751FF3D4DB762B
:1025E000EC60D3D7B29518D2A15546DCD79080B90C
:1025F000CAC1120BBFFC98A1DF93AB1BDF654B1068
:102600005EE85F5FC4CDC347D80D45867712753C41
:10261000D5D18A9BBAEEC963138C577C525364F6AA
:10262000B10D206A678357CB0A170E866DD5DF5927
:102630000885D01D710E67B6FF31E07E2372F1E888
:102640003D91EC1C120CC56EDBA8EB76A0ECA79EAE
:1026500052576FEADB52658D9F773523061D86172B
:102660005DC8B3F03AA736C5DA159F13E4B4C2A625
:1026700094D076F294EAEECEE9658084D23936744D
:10268000E24A165E7813E7C61DFD50B050482D6330
:1026900013C2AA6A8E58171DDA69C583CE78BB3E6D
:1026A000B095A16AA2928542C2F144E0145115701E
:1026B0001AE05EBF9C0A12A3DF7115D367756B9297
:1026C000F2BE4B9F66E953CDB243C3E5630B1428BA
:1026D00081776F4A25F91FE61CB627302B952342D8
:1026E000DF61C481E8880D377FE5CC13F8FFEE2A5F
:1026F00047FE1FA41036FE255F591F7DC235ABCAA9
:102700000674B6FEF8753FBEB8E3E54E9FB2BB59FE
:102710003597D9EA80711C35F1DDC11F2F351F6E49
:102720009A99E88D9BDE8797CC04CE834B4E6BA4A1
:10273000397F25EFD6A735DD1F56B9E29C55513BB1
:102740004ECF012FAD4C8F601761D9315B9771046B
:10275000DEB4FFB4175E5173A1A6C70EA6E1FDED6E
:10276000F6F62F3C537419A325BCD306475992AAF9
:102770008DFC833EC6756CE854B346A3D13E3CAB9A
:10278000CFFC9159193BE886E76EA755EDCD0AE7D6
:102790004C95561EB24F7AAC75E71314DB6A0CB930
:1027A000BFB28F06CD2782269518918937451B8A9F
:1027B000634FC73D1427495393B3C54D2F134F178C
:1027C000AF212313B6C69B5130FDF73034425C571E
:1027D00001C9C292B05E1C9809EE8A497AA7819914
:1027E000E283498119E3768B8757570E0EEAD1456C
:1027F000DCCD0640BEFFC5313062177D86988BE682
:10280000E8C37193D02C082EDDB1FC1B104EA7C27B
:10281000C1371DCED46FF05B2578BED6EC82958A89
:10282000B2D2BD266DCCEA3DF42EA21F26778AD601
:10283000EA2218FDB09772EF3650C7C955F975FBFB
:10284000E3DCF02574FFC392FB7FF986E81B1DECE7
:10285000CE89EA2EC8F48B5B757EB6E7532F52D92A
:102860008BA9C692F567E35290DFB1ACE12D497CAC
:10287000F67AA5FC0EDD45496E97FD1DBDE37A7F16
:102880001D452EF4EB31EF8B332C2C441622DEDA6F
:10289000A2E3C276EC74AA8DEF77AAFCC5346B284C
:1028A000F6B79590384ABBF213D8C99134231E2746
:1028B0003038AFD4DE6F1DCD6102AD2BAF2F76E582
:1028C000AF35D75DB420DC66FAFD08F005242E5E36
:1028D000390D38927D1DFE2D8DCB5A661AB312B17B
:1028E000B30BE988AA674BE3A7F76D5534B0E772DD
:1028F0009E85F445CB5295F1BAE3A122B6F59A989C
:10290000D321E4DE7696EFA632AA7A242C957F892D
:10291000F57F6DAEAA3FCE8BE988384D797C3E5A63
:102920005756597F387DC70953A2D66426F8AED0D2
:1029300007D197B2E130D836217AB9BD4B7BADA52E
:10294000C652B241396C73029226C56702CC0D5B48
:102950001275E0584008A000BA81EE947C38F4A3C8
:10296000BE13B28353CF14363209046AC0B1EE3BB2
:10297000EF529CB9560D8C891ECA61467985D618CE
:10298000DDE089173DFD59F484C72C35B6CD153CE3
:10299000592D85A9811561E2A2EB667E55FA737403
:1029A000FCBCEB0BA378BEC3EFD2586EED85685C20
:1029B0007DE12FA558D5CD21751FC894608EB75CD9
:1029C0000F77DC36C491F7718C6C8AF479EDD427DB
:1029D00001698BE5BEBFA84142D1271120EB63F707
:1029E0002E5C3761CF7DD13AB1DDE63484FAE089DF
:1029F00034F66B20C4B056407848B4507A04B2C65E
:102A0000BD0978064EEFABE1BE31F66ED0B7568801
:102A1000E28E609E5729ADDA751022FB87EA885650
:102A2000F7FF1662C2AA2ED0374270A6525D288DDB
:102A3000EDCF426CC31FB940F6B3ECD4A8DA995677
:102A40007A755AA335BD241095062A3CFA0F15FC59
:102A50002CC7E7361D9B4D8610DCE94CD39A8BCCF6
:102A600000A10BA2EDAB8B40A5052B8EBECFD051A4
:102A70003D9588309262CB1D5B33B579FD0B9B167B
:102A800053B221F85DEBAA663BDBC194DBE16B1628
:102A90000EAAA7F0A1355C45C214AAA3A21CB614C5
:102AA0007747F925D11449279B82F4F1CAB90F0D54
:102AB00048186EBCECB853D573D5FE5B4617EF656E
:102AC0001D5591DEE6D171AEE9940BAAADDFCEC9FA
:102AD000DC7A24E9C3839BAC1EDE43669926CCBE18
:102AE0000A6BC975BF16B330345E8B4F18D577D9D2
:102AF000AF79AF6CB00ACA3152CAF4CDE164ADB15E
:102B0000AE5010EBB5CB124195D192131B26964BCC
:102B100025624DE540FB38E53EDAC165581AD87CA0
:102B20002502CF347E0A0DB80320657CF66B36ECA7
:102B3000A6D27D8284940BE642239289A4F1A2342A
:102B40004D4FD7F1253B58BAF4DCA1158F2FFFB7B5
:102B50000BBEDA5C7265CE6B6AC95CA9F7C01E3920
:102B6000BA98EA16FE3BF2C9FBBC06F5F1243EAA70
:102B70001B629B5E901D8D720490DCE3616CD9C07A
:102B8000823CC99F11068256BF8B42C58B0961A248
:102B900099A0ECD73C269F25E684D8078EDF9D0BB5
:102BA0000A0D1301DB4EF7E55E1CD4371AD73D8CB6
:102BB000D01D646A4410DE05EF2251817B0857FD69
:102BC000B88E0C1E73E5573CD3260B8A481830117B
:102BD000CB429E53A47D600F83435024FA43524B53
:102BE0003466F505ED8C23EEF2BFA423BF3D598476
:102BF000D1644934C01632E7205F7F36346ECC9FF3
:102C0000F3E2627AC1B6376A016923AD3C424856A5
:102C10006AE674AD392C1111CAF54156DF2E2DF735
:102C20009C62CF3883E846A2EDDDE4A51CFE7C4221
:102C3000D1657156ECA6136E46657089AE37ED44CA
:102C40000BA3E5CD86351D525D1877B0256E18961D
:102C5000EA01DEC6296B26823742FF3FB4D979F2FA
:102C60000FF2AE77118200B5C177163F4876E36464
:102C7000C5C50BE816E1FF704F29C5A9D5E4117C45
:102C8000F40B79E14A28CC55504B5F0C460FA58CCC
:102C9000C2FB2B9826142F4CC4AEB2811A9D9C6F98
:102CA000E79C0D637FF9A6242473A1D7C8401ED1E9
:102CB000A54F61D5C4342E5E528B88AC4B17813B37
:102CC000D7753E002B5F7683490B417601F8F3AD53
:102CD0000A0552DD61E74D8115894A614284371A40
:102CE000F0D4666EAB88C42500A7C7B61B53D0B915
:102CF000D4C4C1630F56900DCD1FFDFCBE3562DC00
:102D00007190F6A4E6FB3B11E5286FC7626BEC8A75
:102D100046A11EA601DFFC40E3D83D4D76C2117EE0
:102D2000FCE587DEBADE1BEE2D32EB11E463439B3C
:102D3000A39C414CF3AA3EBE043E1BD42B7639DC47
:102D400087D6290E7FD10879379BFB2CB25AF636ED
:102D500068CF73D6BEEEC856BA9AE02F2EB1BB220A
:102D6000E6C5F7B90EC55016C3F784FBEC517D03D9
:102D700089F4895E8B777EFAC0DCD4A0DC2DE26911
:102D8000BEEF2B5F19237DFFAEB4036E3AA3DF5570
:102D9000BA7D651F6C148837E94507E56CE4E7F0F8
:102DA000E55D4FBE488B69BFA56EDD4EA094A84A75
:102DB000B64738AEA3489B729A4136B5E92CFFABB3
:102DC00008A94C155A7EE27DC813FF5FC9025F3621
:102DD000333D7B2D1D36686658FABC3C5832336350
:102DE000256809ABC413BD414B63701D591D0358C1
:102DF0009C5C421E8E68C26F87FB3F087D02F4997F
:102E0000796348A2F0DCCBC9CA6FDC1274F55C05AB
:102E10009FCA36E0C96B0196A03AFCE6A06E7DE23F
:102E200019910DE62EFDE56BFEBAE5200EB4062BDA
:102E300079F803C26D655A12042479C3832A1816DF
:102E40000846378B3C383B1E29C262CBC45A72609D
:102E5000622FC384E775F9130E7727528CBA9E58F8
:102E6000E14DE96609C31AA3A7F4B211D0E4E7C2A1
:102E7000D5DF366E89ED9A6A518A59A91431B86F37
:102E8000B4816560F837C2F7F2D5A2263C27FAEC88
:102E900072C09ADA1801C72FA110DE270D60F1F376
:102EA000E9193A7093B2AA9B98890E640401613EB5
:102EB0000D0F4034A0EB1D765E1F76CC139782B5C4
:102EC0006939D069D9AA70C5739953C5967222E73A
:102ED000132EBB20E7DFBF8598F85D92EEB0CC31B2
:102EE000F28F615CAAFAE5066EBA622FAA80F95EDB
:102EF00049E30C50BF7F96FE4E49BC16B0A89E70A9
:102F0000BF94A640D5238D8D2745D35DAAF2E1E776
:102F100056A975EF63FCD48ECE83111B145736531C
:102F2000300CACADF2E39CBD39076F0097004DBC8F
:102F3000D119F97B67CBCAD81F96BC9F829ACE8DD8
:102F4000F26A145679551E08FFE517A68502B324C8
:102F500007A8537A26FB31493A512C23C989039F8C
:102F60008322F6C77527A9AB7A7BA37E3DA8D057ED
:102F700042BB644CA0D2996E21A82DC3309083AC83
:102F800073090B5AD1C9E721C01DB1FBC313E2FC81
:102F900026EBFBA67194AB244EBB9F22AEC10087EB
:102FA0008A89D574ADFA4800CAC0CC3BBA4FB687FF
:102FB000235D1D73D5AD0366D8EB39B3AE3B7F9B64
:102FC000857E2273C223ECF15DC98567F20E14F28F
:102FD0006900D858BA87FF3279F0FD06553CC7D052
:102FE000722308357B512E8F59F576C7053F139F05
:102FF000B76E34655802674F9E4F5D7145A46CFFF4
:103000005BBA849D7F9F1F3CF2424FDC8E61E95882
:103010004062CF6DE7EFAD59C7F61FA928BBE19716
:10302000BBC5BBA68FF4E390C6EEC049CC7DF5C20C
:10303000BE22D76CC761DFE738AA79D526F8B9DD9B
:103040007858FFE13E77791AF88EFBB46A7D63C643
:10305000EF311AD73F51FA7638C769FC765B77199A
:103060005C2681F255F500FD0AD227C2612D511D63
:103070005C5DB1A1466DFB86BC2F7D422619DDAF9C
:1030800056F5DE6918244C1767874B9F8C73654093
:103090008E6225BE1E8A5E4C642FDD265C10628126
:1030A000731C26DC77633214108D1C67618F9EEFD2
:1030B0003DEC0A6B8EE7F13E92DD3CA4FE61DA3412
:1030C000E24CA102572FFB25952DE882D6820FFDF9
:1030D0003077476F4AEDFDB80CED52558426F2E18A
:1030E00051CA9C46DA7567CFFD70F1DD78D50B5576
:1030F0006B93BE3484C0FC2E740792450E5C1BBAE1
:103100008470C1D8159D461B5505D1ACB6B36994E2
:10311000344D7FB3092AF177B93D9ADB233E554AF6
:1031200058D9BE0897F50EB1FD961240A38F297E9F
:103130008BDDE6BA614797433092A56111A8B3AE23
:10314000A384DE5B50C51514D72E8BD276C7A74556
:10315000B127B7A2E72556E8B25F6927C2AF02845C
:10316000CB5C08B3D730F6923348D5D4ECC954556C
:10317000DD0EB7F4E2930EF9A3CFE958FE0BAD4F85
:103180004EE80894398C7A05D4CB6A735271526731
:1031900043C1AF8744245E12CCB36B0B761156C586
:1031A000387E83A6EFAA629E185DCF2D8F58BD1C76
:1031B000DE8A207BA587F7ADD88ADC0D5BD812F8B4
:1031C0006CAF8909C8767C91C1CD2193D7F41BD609
:1031D00014DC3B93E229922C4846ECF0192FA26BA9
:1031E0001050FAB95012B2A36796B71081702BCE67
:1031F000083B6A01C0D80CCFBC3813392FF48DAF0F
:103200001EE0B4F203650BA729F0C781BBEB22D007
:1032100033AD1DE5F47F4513FCC1259E1D922DA6FF
:103220004F5E81F18209A70505AEE17F4A4569F647
:10323000B7586EFEA10CCC8D21382CF475A0F9097D
:10324000FC938B5C3208E3CEC33199AF94762DE7C3
:103250009DFB689BA5FC74597615BE7625A4784F16
:10326000C98955F0463A53C2589FB726854D9CEF01
:10327000557BBFF94015EECAC6CBA75FB09C77124D
:103280002A6B4F1095EF503CA45B9217846FF3AA02
:103290009DDA9F0CA515D8AABABC9693D1E743CF67
:1032A0005F39E4437B39D9BF798C016BD746971BD3
:1032B0001D497FEB038CA512473CED102639C85BF6
:1032C0000BA84E084813EA6BDBD8097127CB3210E4
:1032D00051EC94C92F9825A64A58F3C5AEC4964719
:1032E000E9A074083EF766BAF494BA6D74C9E9D5DA
:1032F000BDD8B0D3E3924B071D75574ECCCBBFE87A
:103300009E5DD4229424F548AA6437DC25B352424A
:103310001CA414FD5E35508886913C57B96EE4BA02
:103320006ADC98D91B0CF48674CE9CF1385F577513
:10333000004614E3E2D4E9B4C71AD8A0C2EBCC2B00
:10334000F201D59279B9BF12A0D5229C09443B075E
:10335000CF97DE2EF833F6A42255E4262BD4768AB6
:103360007784311FB7C169B918BA241A2956574F43
:10337000ABB71511DCACE3BDA9F598210EE8370613
:10338000CC6FE52F98BA20616D3C7C5FE3977F6638
:103390008F619155FD4C9FA7878647D7B102EF4BB0
:1033A0000E3B2CA9B5CF9A424735E6F7BF9A25B414
:1033B0008A4D1B5DE351B2A6BB629833FEF89B7A3F
:1033C000AC5940B77A9936D6B5DD1838D19A726CB7
:1033D00012E2201F0BF0BDEC7956CB198A481E3340
:1033E000E1B512C1F3C79BD8A06816D9EDDDEB5645
:1033F0005E06CF65103E6AC8E4B754A8A6C0AE42C8
:1034000080A53C4D7091A41D4FA8E1F8AC0E516B06
:103410006377D1A79B67BED38F0A0B8461FD8A793E
:1034200056DF9E586CBE6856E26E444671AFBF11BF
:10343000A0F8B9F403D3930748C8ECE8AE725792EA
:1034400014EB2392AB1F50FB4DB1463F3A87B4704B
:103450004A98548612911878D5FC869DA66A34C283
:10346000F2D5A01ADB097E54C9E7659D1407DB6419
:103470002AAD6EEFAA8BAC975E6D38564AE1C6E472
:103480006A698580AD5C1288BCB429EF476832B7A1
:103490006F2302DCE3B7F9A0A84D5BCF23D7CC7E26
:1034A00027E87751B0BA857E799FFB1925C2CDD622
:1034B00060135AD9F4DD126F9B10044973560A0C3D
:1034C000C07505CC3A66218847CFA934C4CC8CBAE4
:1034D00095DC131C3ABC413B7F6F3BC79C02060046
:1034E000E1DF738DFF3CDE3FA77856CA24A5D1DE0D
:1034F000A9BE5BB51D3A85ED4423DC15E23852D5F3
:10350000BAC239EA6677462C0D6CA2E6F558943BB0
:10351000D6D85E2E50C235F34FF42CF9043A69FA2E
:103520007E51842188E3A3A34A0BACDE55F91A85AA
:10353000A03E126DAE7E5E069A5FFF2AFA787E602C
:103540008F67CE301BAF493425898B5F2ABC9767C4
:1035500067E99D7DCF93DDFD2917D33CF0D10D990F
:10356000D8A0C15EEB9FE3D694783E602815241363
:10357000BB0D105CA1A81B302291D342D0C0C3F96F
:10358000ECA1AB15B51AB179DFB6F6AA2C4B5F5F8B
:103590006130EF24181206676A4EAD00B3CFEB0C12
:1035A00037CBCAB6F6B2E1DCFAA7510C9782327E6D
:1035B000807533947371EB976ABAB9039BE377E133
:1035C0006BF986214FEF54EACA7ACB145D609BE019
:1035D00074D2D0B4E20086143D31AC5673B71F3DAF
:1035E000C546B4155927A509EDB47B1C28E3484806
:1035F0000751F69641571EAFC1CAC0AEEC00C735A1
:10360000E6A4827A0AF4981059F1CA2656DE20FD03
:10361000A58386D47DD14248496931A4574D4212D1
:1036200045D3CF0D3B7EC2BC99FDE5670EF4072D57
:10363000E0B1D8FAA481BEBEB168B4E3A11269D8E2
:103640008F612C0AD82BD0AA30A564471C3D3DE0E1
:103650003AF5A1730E9D3600AB5A75C040BA4125AC
:10366000265090AA49D0CC8B2E6DC2A2E1B34C7DDE
:103670007239FC9D1D8D9CDF91D22C38B2B1C41ED5
:103680002042DE9E9EFA32F828DEA43189B1E00B9A
:10369000C1A5AFA917555CA8219079DB9AE37EDA22
:1036A0008A66085E522F35361A1BF31E4BF91C6DC5
:1036B0005D18095935D715406B53D28EC1DE101FE6
:1036C0003215E2E2C4CF12F4793C536FA852E19272
:1036D00082E5C8F514DA4E6036A5DFF4910EC03BE2
:1036E0007DCDEFD9EC8DC6F31FFC5DF02BBFC2D0B2
:1036F000C8F64366054327F7970C7BF6EADAAD5721
:10370000957933E2EC84AF3C8D74ADBCF5535E3CEF
:10371000E5F520D07B39FB23DDC2ADA4D230A90D65
:10372000513B35D743D0324CD86108F06FC3DFE14D
:10373000EB24F626321796AC117615DBFF0375A342
:10374000A5C14112A1F8790EC9234322269E4071DA
:1037500019AE79E0223E468C69C9AF5763FD955298
:10376000CF6027AC2957F8C7DCFE150E51881FBF64
:10377000BD3D7F82B79BEBCD6ED9213FD71A641C2C
:10378000298A686117E44F0BD2513AB23B342AEDD3
:10379000B75583920308996D1FCA9B85DEAC50E430
:1037A00057B367BA6D8C9B23983D3A54880E9EE9B7
:1037B000529235FF4B3F34CFCB4B999E8156FDFA49
:1037C000794791982A81BCBA6854E85001E9682B7E
:1037D000F682D26BDEDBF10F4EA71369180B2FBEFA
:1037E0002D1967AAC4436E1D3DA1F9320EBA843962
:1037F000FA5EEBAEFFDC1E3BB1C25825781193BBDD
:1038000044889AA3363F4464BC852B3EFA40F97342
:10381000805A291F5DA896236BAFBFC69A59A6AFE1
:103820000E2EA5051FF518CECE2439B72D1227C3AD
:10383000164F645B4DECEB11BB3829CB6EFF76EB7A
:103840001B12F3A9B52A3C7D57A6C776BB366EACD2
:103850005E8EDDE643963D4EB6C8B8ADF8D1BE2AC1
:1038600076F1C512C2BA4EC138D8EA8695C5CADA11
:10387000B3FF3739A3D232C637F8DF2E13A178D180
:10388000043767E73B1D9A6555C31497F433F0047A
:10389000A9A9A95716D930BB9C74D634AE98770F16
:1038A0003E1D83B2BC974E4AF0BE98695D97645145
:1038B0000D2251F8D51870E00498A5854F169B0E7F
:1038C000762BEC1FDD0206B6AEEEECA8CB834050A3
:1038D0002BCF40C26C1BAE666DB2FFFA929DB96FE2
:1038E0007E621E573BCE1DAB425AD697D41344BEC0
:1038F0004D3CB98CE22161AAA64A81AACE2C6A75F8
:1039000059336E686CB0F7E7ECCF4DEF1D28720F9E
:103910001A147FEF1A06548DE1DE4AE010B5F22D3D
:1039200050FBF33DCB5BD35ED789E91080BE80BAF4
:1039300036CC2432C5579C7F5C3CB239E30E2A4B0F
:103940006C31C6DCA145122218249B75650C2554E8
:10395000CFF457D379A4CDCF595EE15E08CDA11144
:10396000E451B035169B120552E72CB4E6E72486E5
:1039700098B14AFFC9D318CB838FFDAC233F58EBD6
:1039800029AA7DE97DEAAFB654C42244361F3B869E
:103990006C44D16A5D3455739FC4468D093E35240D
:1039A0001552555AF0FDAEE2D698A1676477EEC97C
:1039B000CC86DE4EA892DF2130A08DDEF4A66DC34A
:1039C0005A2ED78AED525B3FE5EAC01932E5D5C0E1
:1039D00012A8D44725E825DEE53AFBE134A389287F
:1039E0006AB12F7C5F1E4C19310CBDF279C2215295
:1039F000BC66F449094D75A5380990413F9057B10F
:103A00009754EDE502A3A09CA7446F0F633604FC16
:103A100014D038DE32E46E79234B9E0BA3F0549F12
:103A2000DF288E98CD75183AA3599241B700606D82
:103A300071476257D794E0A78E173F399EEACF2689
:103A4000079B7E81109B1A5770276EA3195104346F
:103A50008352753A819018E3F50C09D2021D57F292
:103A60004DDCD1D94812D7B6228D89A6ED54827388
:103A7000A8F0FB82DED80F38A0D1CBFC7AC54B4032
:103A8000F284EA03C8BDD4480965BC3D8F34877C05
:103A9000011775358C52C9303579DD2A471BFAD5A7
:103AA0009885A031734F095057E53AC3494EFA91B2
:103AB0001645E74B6E56BF30C159163B70891A4800
:103AC0004A08DE707BB66CC1004C0C6EAEBA70DB7F
:103AD00090BE9E005257D142C712642C0433C5AB2E
:103AE00074C733D5B0F1B31DBDAEFD1D09C0A936F5
:103AF000B15FA00024D99D3418AC22796C11848464
:103B0000B71B47A22FA116F17401F851E5BE140CA2
:103B1000610DADFF3538FC3970BB7923521A20AEE8
:103B2000DCFC66BFDD308C58D3EB543D2362145B64
:103B3000B7E618104AC40FCCD48A7A9C2713B40372
:103B40003EA9C3FE013B5CF193BCFF71A796CB88F5
:103B5000BE30E8A673DC19D7332F6B7BAF89A8651D
:103B60009A26BFDE7A8195DB78A6C0E06B65474E6A
:103B7000911DC289AFF14D444DFD7AB96C1280A3FD
:103B8000B0A7189F2EDBD6B863843F8F4513876795
:103B900014478CB0114627976863F95ECDAF20EBD0
:103BA0007140B8BE1B29F9CA0C4C711391166CA058
:103BB0008931515F28CEBDCE1DF1C49F79703FEA97
:103BC00078B6EFBE48D1EA67A89D5EAC5727D0C350
:103BD0003147BDE919AF451516A49E28E97AD119D8
:103BE0002EC1FE66F19BF250D4A2FC8DD036EAAC19
:103BF0003038CC8E281A21A3697F9BDF7C4AE5757B
:103C0000304A594F83F55DC96612F39D7215C36B37
:103C100010757F2575927DADD5C327BE64B378C47A
:103C200088411FD3E105503919A2260DCDE614486D
:103C30006BA4F9DEFD1A87794411EF29B879C4E93C
:103C40004A6DBEC51918D6D5BA47202137CCBE2635
:103C5000AC67EDBB7AB86A2C1E356FB24648242D8E
:103C60000029EA546DC800CDD547126DBC0DE8AAF5
:103C700064EDE7311BBB6D09CF9EB21805E5E77710
:103C8000427C0F617A70A1A6678E4F45C284992845
:103C9000A3C52773D040702084947029CCE8AA1261
:103CA0003D4BBBFA4D908DE57A6C6AC0228A4A99E9
:103CB0004B6222E674C9BBFE6D1740C3C7A3430A1B
:103CC000AEA8A98CB4F49FAC4F4AE7096E0D497DAC
:103CD000FCC6F8809CC0863F464604BEF8A3E6B802
:103CE000D604C4C49A4EE1267F491A27D4E0AA67B5
:103CF0001DC84C616B74842A71DCED7474803400CF
:103D00007B244FE4039B5076B0AB4F18731078843C
:103D100012D98345525514BB57AF5C902919D70F60
:103D200032DC46C066FD9990FE37C2AA563F97C660
:103D300099C4DFAC9C8A1296C2B2B0D39D16DC0A3D
:103D4000679BC5C605B56E950344CC751AEC5DB985
:103D50007F7E7CC7F4084E2C704D5321F7DCC0EDFC
:103D600062C583132813A2C85E2643CA42834E4D00
:103D7000CE1796A7DD380D6F6D77310AA447791BF2
:103D8000B41CE3C1FF31EE2059612D3EBA5BF186D0
:103D90004E7564783E1CDFECDE486523CAF4C9E644
:103DA00035237A01C945BB10D8575F42CD3D2F90CE
:103DB0007323DFCD44255C01F39F241605A3FF6C1C
:103DC000D792AE54D336DDFAFFA602F8994EB60D5F
:103DD000F96DAFAAB3F97CA09264DEE6048BCE2421
:103DE000D73467E4950F87A99CA043093B5FC30EB6
:103DF00068179E5D6B357C81040F3340D7988EDF4A
:103E0000B46AE7F7B7CB6EFBF3E3058CA46904193A
:103E1000DF1DA8367A4B66431A99BCD9B49487EF54
:103E2000D0F45E89A531178067BFCBB8CA4EBEC03B
:103E30007EC15D257B36F43CFB1487D2D2902D5099
:103E4000A89C0758CF9A10366C0980EEF552BD2712
:103E5000D53757F72973EEE64F93469E890CE02934
:103E6000E3B9A225254777F3E12F6275F3B5B17762
:103E70007E66F83CE8FB035FE328409447FADA4E9D
:103E8000B08CC8C96C6188CAE6B34AA7C598E82354
:103E900045CB71AC663E92AA2F9060947ABC6AA121
:103EA00015F34316E5D88DF269EC875D243601DE03
:103EB0005DA3F306F6DAE693FA5E86C97C77B7105F
:103EC000FB094D929E4E27B48CA8D2BBBA4BBBDDEA
:103ED0002C6C60EF093D46AEEE5226DBF0417C11C2
:103EE000140E61D8858814A6A7BDFBA1187761D9E7
:103EF00040BD45CFB258208884255F52DC9D00022A
:103F00008D3CC7F2149B4C550FCA68811E82A86570
:103F10000FB8E6343E64F2220885EE3DB113809777
:103F200062ADB3EB825FAD7974F9E3288017699CC9
:103F30004A47AA4AD121B87CE93389A30B7542B715
:103F40001B0D2414445B73F1642F0426B283E6E84E
:103F500063B8C1EAECDA2F620C7EEB99038C300C6B
:103F6000FB6D0FADCCA3FB4702678C9B4F747B8E20
:103F700003594F7B8D4ED7344A856C7517A3D79064
:103F800043D03027C0A07F544525ED4E1FFE760458
:103F900065082D7C03126AFDD8543A12845C98702F
:103FA00097C2D61FA585BA696C11BC0CF02A005ABD
:103FB0007F771178FD7FE04B06F5E990A44D51FF26
:103FC000CF289DA4B7521C9BB000B63794E37E6502
:103FD000F73B02B886FBC840ADD89FB21E359FABF9
:103FE000170292E86225490511E62A7E71DF55899C
:103FF00009CA3DC815F1BF0B69B62948B3ADE785BD
:10400000D655A04D5AD3D8AF13D2F7B5813B47EE62
:1040100098B7EE697AC7C25DD442964E4D47EF45D8
:10402000D63F4B0B38CF7671689D0DDB192BC61F21
:10403000141EB38FB75B11E6A72BCE12CF38F473E3
:104040007712A42B76436621E7E16402D95469789C
:104050002DADF48CA68B9BF78D70B6DFFD487C7B75
:10406000015952BB7E6142CD9E13B969AABFD6E108
:10407000BC965F0390A5327C436ADE9247374A6361
:1040800025D9B9678AD67CD5E9761CBD05DA71DDFC
:10409000B8BEE6457A45C3BB7D01D89B89EE2BD8D7
:1040A000182E68C2F2AC6FC1CD73553D5F9D681488
:1040B000F6F36533A069F1DF05A6F5C11847468020
:1040C0006008A8D66CEB127464B20485942C38A4F2
:1040D000296CC70D70FD88D60A738FF589790AE8B7
:1040E00090FF416935FFC7AFA91585A9D8CE4B0D03
:1040F000A211ABAE12D71886D52EB2B978B460B281
:10410000F6D16598641292C8D3590F9477056E332F
:1041100011C10115ABB75F05EE76D272990CEF6C49
:10412000142DF8D373D871DF739AD8EFE50B5FDEE7
:10413000CB8EDE8042A928E87A6DAECC52F81BA562
:10414000ED49C4DBC7743EEC9AD9D32514B31BB92F
:1041500064243186BD6B36240CCF427291128807DD
:10416000E0922291221F131B960622539FE92AD721
:10417000904C0B64E2C69CFE5462D108ABBCEA6C66
:10418000F1E60BD1B852ED11EFE517154B895F350C
:10419000A153000D291BC8E674231F37FE7F3E364E
:1041A00014AF84FA6C5252DD3EE4337E41E6E5B84A
:1041B0003D0B05ACCD65884F407B6D9D45D4019C82
:1041C0006292923AF9C1404A371E4FA8C3599602EB
:1041D00053F08EC14380A1338DB4AC599F54C507B1
:1041E000501FD1FDBD6D0B69D56B35CD491DD7B4C1
:1041F000433F547A647A5960305F45E8CB19468F63
:104200008AB2876A9A7B8ABAFD9BC1D9F17DDB822B
:1042100008E022C785CFB9971ABACD458B41354AF8
:10422000B979A46DAC7481D87E8E7A80CF20BAE93A
:10423000F8BDB4813F2D94BDF2A863C75082466299
:10424000D2AB3E2A55E4EF34087536DFDD39FFD1B5
:1042500037C823F0A59920B89CE1FA2BF9F834C7A8
:104260009404144D06581B5CA6372CC5E4174687EA
:10427000C8B2AA84972ADD487BDF568E0E1D4B27D5
:104280006F5CB0B22F1A10ACAD5B07734BFCB1C0C2
:1042900018B2386995C7A6C9D954C9F8A052D28BAB
:1042A00092C6A26A06212C315B733C53AD2DCAE93C
:1042B00056C6DD1CCD8A1874944E9B8B87D15F7BCC
:1042C000328872B0A53D98DD271B8B00EE45F16367
:1042D000F9B1E0E57A5E10717936F59C384761AB4B
:1042E00005772B8AF1D460DF72B073A682260A8428
:1042F0007DCA404BAEDF4FF5AED2C08B91B9FCF317
:10430000427CE606435719A7FF70FD0476464DFA36
:104310003844B79C25DF24B627E2D11E167AC3AAFB
:104320008CD6802A6AC3CD54D059661FD5214773D5
:1043300058F52B4649129BEFBE78DE42008ECB60CB
:10434000B6B79449D9199942B6C6F4BB729AC196C8
:10435000EBC63570DF3EB3B21ADF4252BA55D1AA6E
:104360000A55A553B0A959EF542E95F2986F82992A
:1043700094942E15B5EAD79E6CAA5EFDEE70FC7A79
:10438000BCF593A5F8B5AE0ACE69B4BEB29B34B8FD
:10439000835CAC940C1BFF07BB077BF56AEE934371
:1043A000C0DF54B11B77A74B7D9F3BA4395BCC6C1E
:1043B00040ADD974EC248EA302BCAFDBA402AB7178
:1043C000B8CDDD3C72665A6CCE422CA0BC4432C0E3
:1043D000B922B7D036AA936F9960E0E083A3122F79
:1043E00079ADB67CBAC502E772384674CC80C70096
:1043F00045D022FFDC9FB751C2DF09CE39117EFEC6
:1044000082EEF9CA89E33B250D019E1DB171E1B22F
:104410008BB9E8719E66FF79C7C19539324E9BB35F
:10442000531999847FB3457CF837A415A47758EEC7
:1044300078D5482AE1DAF9912C59873289F7C436C0
:104440002B2AC7B75258DED87BA3E0A60841C4D0B8
:10445000E33576223DD133392EAABFB48C21E4E175
:10446000FF01C3E174A60161B43EDDEF48A9332A20
:10447000276F76E7614042CEFA414D2C8F3D8DFA91
:10448000864A77EE7BA38127BE7B499A3D52BAB01C
:10449000C16650475EBC8664A7AE2F06C22C76A5C7
:1044A000F50AC9685187D95D4AC4DB8BCB1EC93870
:1044B0008C8F6133CCEAE14ED5E4132DADBC9F85E2
:1044C000B0FB9DC1964CE0C9989866F459B83D1F61
:1044D0007E453B19020DCD5EE744E372B572E242C0
:1044E000351CCAE93FD2E2D46B8A25013508F03A7F
:1044F000504F5A6A6EFDB589D9DC04EAC535E1D75B
:104500000C73ED443DD8E766649C92321FACDF87A4
:10451000C75D97AD1203C1A16131BD456C998C3B5C
:10452000B70E0C9177C7A7C86864FACF8B441026E2
:10453000DBBF1C7CE07C90C52DCA7960A6C474BD2D
:10454000A9B22F57609D9D2D96CC1309CA5FE5DE59
:104550006F6CDABCFE0F028A45A1AD8DC0EE16313C
:10456000889F45FAD29C2A182BF80C268C67F527D1
:10457000B39603664969DA37ECCF80AB61E6A048B1
:10458000CB72E34C9AC4ECCC65B38112FC35322279
:1045900045BFDC26154D911949BC642D316D66D09F
:1045A000EF5A9E1609BB1A1947DCDD0E42E035F2C0
:1045B000082455A42022F084686266E4F1B327FC45
:1045C000BEC3E17151703D8A81D42AE7DC12D881E3
:1045D000FBC324D79EA9CCDC2BF40AD61E56C3817C
:1045E000183AC1C22AFF802617EB1AB95F91D1276A
:1045F000BA739E76F3C3DCE149B30687BF91AA4143
:104600002797E63A99031585A3293B8F032B345549
:10461000328574D9E886D3A2EB54D75D2B9D1281E5
:104620001A82675B900535B264FA99852BC604D966
:1046300035A8CD5E40BB24B05D4D68B634C9E2926A
:1046400022B9E3C93233B30D9B7D2D93226E523DC7
:104650002356D91E2A13593F4CE8AFFE885040B468
:1046600000967B1E927DA313B5228FCAAEF04669D9
:10467000271071C9066CF269FBB06007E551C4A64A
:10468000DA09B38B84E2F0900DC7AFBCE4E3EA6DC6
:10469000CE8F382BB75DAA237A325C8CB05F44246E
:1046A00042151833571FFD3F84340F7A29A06B2B16
:1046B00068D65B203CA183C03B2038C8A20FD0D174
:1046C0009AD6014C6AFB68D5F9E4364C47D9870085
:1046D000CB7C42480B8E09774AC1B0D73C1E50EEC6
:1046E0004C1C8FDC7F5BFA9938A49BA788C612E824
:1046F00070FDF1C00C578834A7B9110A869581CA9C
:10470000AC25E6982EA9AB61E8CA4FED98F666266F
:10471000B7D1C207A59AF845AF8EE546C45D32C051
:104720006756DB17C6FAD403CFF71B6B03F3BCA69F
:104730001271954ABE26A29BDB70214FF0006015D6
:104740005F62C274BA228E2E722891D59A1B55329E
:10475000909923AB3852B1C875E96205D7C0599911
:10476000776872CFD82E71EBBF9A8A581AB2AD53C0
:10477000B21B8B3AC43D6A1CB7409A60DC28C78ADA
:10478000646CF7C9A780C116932F4BE733271C959C
:1047900037815D106A350EEF6516F4CE6E6FE165F8
:1047A000EFD97D69AB5C7FAA77C041FA5B2F38599E
:1047B000695236761273B758F78380B1BCD5702230
:1047C00097B50D51444CAC704BCD69903E2C423B9B
:1047D0003CEC545A2531D03E0DF7FC709F99A04413
:1047E0008E521E7E2E0BFBCB4D70124398E8704EFE
:1047F000771DBED039B454324EEEB29E8C562C3D4D
:10480000193A4600D8391E529221A283FA7448B44C
:104810005F04C37C1E21FEAB4199525F0E2BD499DD
:10482000D3DD676AB3C826FFF7960DF4957B47176B
:10483000C3549454FAC0A3661B17D98C6384648351
:1048400017C2C2B891B3A9AC29D444075E4D2E9EBD
:10485000D13CE66ED4AD40FC962EAA68A8EFFDB11F
:10486000CDC9EFB3FFCDFB8BAFA0A482C871D1C778
:104870008BD9B006EAE2604432625BBF4C462BDE65
:1048800059D204D77979D33CE9934375174214A6DA
:104890008A409A47817392BC2735E7C0F583D4B02C
:1048A000665341EE0153CD28E7F831DB6432461AF6
:1048B00028CB9BAE9A3B3F6C564679019BFD956297
:1048C000B05254863BDEB7D240B11B3153F30CC11A
:1048D0002F9C1955C04AE22BA6A3635A6FD6BBB8CA
:1048E000701BBF90BA5DDEED28F1860A1D948B6ABD
:1048F0005922146466D95E4D305C7650B14F111464
:104900003620EB653DD16BD1F6E588996B2F816A36
:104910001B6347D83C2D4851C2EDB13F13D4E0187A
:10492000C368439B8F2DD99FFD1FFE0D305C2FD494
:10493000A4C529E5B2039DCCCD82B98B62832F2A11
:104940001189150E1C5E5D981CE1D6E3E0FE98E728
:10495000A56C2BE833A249FAEC14D3AEB86969B45C
:104960007F6C22B9732B36706D54B89B0521EBED2B
:10497000189944274A2A2F882844B24BD86845847E
:1049800084BC18E968CDB4B676035C7844EF6574EE
:104990008FF4B0684907A2A6A0DEBBBA449C577446
:1049A0000E6EC07EBA85603979D83A35438085D09D
:1049B000D96C366D2B779AEB202E04B2B96014B007
:1049C0005A4A663ECFF33DC9FB86015977B15B6A0F
:1049D000555252AA3093A804C2A230559C69BE51C8
:1049E00074D0D249DC993931438B3C1A371775F9A9
:1049F000185066C3139D9BC92FA8E0D88C58899086
:104A0000B20DA347433133D03FC6496D6F28FFB97C
:104A1000E994EED2CEC8BE0252E116749AACBF172A
:104A2000603CDDED1BA28827C82F045D3030AD81CE
:104A300099A3D0F5996BC48E86FB10EB133F5F1BD7
:104A40007681E26166B7BC872EC2A6FA93CA193A8C
:104A5000BEF5C21AB551BC0BFB2E0EF1E46FF13559
:104A6000CF128DD693BDD224EC903C7B818D19A5BD
:104A7000EE438E49571BC033B1171CD7D3231218EE
:104A80007F99DCAEA0E5A16FEDEA883DDFBDF2B114
:104A900097F5FC9EBBAE403A2C0B24A98D237E7C5F
:104AA0000B5EF36E9819A067857B72ED784F0678E0
:104AB00073EDA65B66B6313EDFFDB95CED1841676C
:104AC000D15BB7C38CBFCCD1A77ED37A1F8AAAF69D
:104AD000CD771789450D448975A61B6B8966519062
:104AE0004CB78F2975BDA7BF438AADB699D2494748
:104AF000132898D67346D0073394CCB7D9D7C9209A
:104B000058063FF7C6C57C3F65B41EADCCEC72C7F6
:104B1000AC605E4AD29375D8B22A41B6A5EA8D83BD
:104B2000D5B96A47F307AB5B403C190A32041AFB5C
:104B300006E3A8398907669E00B5B3302F81AABC69
:104B4000D7AC55561096CCB0ADC323DC5930BCE081
:104B5000476F31EE7FA12B51766A2A15D2A169A049
:104B600088FC4271185F2FD2EEF4569EB33E655119
:104B7000C87ED7DA58DD43F7E9BD3CA5DDB26B85C9
:104B80009BA9680134F604FE1A9B8A138BE5DA5858
:104B9000B8B39F52B0C754D1D8CB10E3880F0CDB09
:104BA0005DA96F93F0FA1243167D6DCDC3095A7457
:104BB00072875534556E83E22BD1004D2A02ADA287
:104BC000D7AB7CDB931613877B1B1AEAA7544212E0
:104BD000A8FFDBCE40F02E3A5298DA71407BEE13FC
:104BE000A686E824E6C079077790F8281A03D11042
:104BF000A650F737C6FB1D86320369D4EE8A78FCCF
:104C00003F2696E464370958FDB1A20286ADE02143
:104C1000C369C6D0DD264E3EA8B8403D9733922AE0
:104C2000A437098BB4B5E4F1CD8D5691F6D1E328C4
:104C3000EDEBE0C09540072FBFDD829201AAF19E07
:104C40007C1133A42E653EE4431DBEEF37DBEDC17E
:104C50004DD88C71D201E580976A1A122CB1A5A8A3
:104C6000C6DF3B5271D60A3661541AFFA0A44436FF
:104C7000883BE57632F740D1FCC85483F5CC8B1DD8
:104C8000EDDE0DA2A78037820C490BD16CB8DC1287
:104C9000E6F8D79C75E1531F00C1A4335BA10A411C
:104CA0001B81D922DC345EC7ABD83691EEDE9AE5A3
:104CB000795AE2DE2C99E8F1D71C206C1A8E38D58F
:104CC000FABEDD64BE9116CB3A7C914D48E3B7CA7B
:104CD000F052CF50F73AB6BB319F45D0FE87707E79
:104CE0005D0C66BB64C6FEEBCBF6645435E8E10EA2
:104CF000A6DBC04D6C33586A67FCE079809A9B351F
:104D0000D7B5F8B2C11356D34441E04A389F05A63F
:104D1000B7D9426810FB0DB8EB91561B1F317013C9
:104D2000B290EE64459690874BD276E54D59D7C444
:104D3000F07A87FD79E83625807615D9A4EEE7E488
:104D4000B67AF21FF38F7EB34B25975089A897CC84
:104D5000E006378A30117060F60793EDE3278C3355
:104D6000C1B0D0A94E5553F6A75C640CFE6B02D9B6
:104D70001898EEE5684EAC86F8AA8D157664AE7686
:104D80001E2AF4EF7C022F237228E5439DC6DB82A6
:104D90007324CD5F41BB0FF140B144D598BC00D026
:104DA0003FEE8B7A62795DDFA87418F777D078517F
:104DB00020DB1228FB9FACF2CD3F4AAA8BA7B1386B
:104DC0004D7944156FCB5EC25952A2B320175FB91B
:104DD000116BAEEC713C855491C94B1F5E01BC76E2
:104DE000A9E436584C8565158FD01EF0ADFD5A2CC0
:104DF000BCFCAD0252C2C0E9883FA86209E35D284D
:104E0000544EB5CC86355F50802F7CC1E6747BFB59
:104E1000ED605A0DF677E89B9380881E42E1202CC6
:104E2000A9FCB358F357057012EA66602996CB8245
:104E3000CE966421A04B25968DEDA1D8505679C809
:104E400068F0FB93D450328369D8A71E8B90C1D8E9
:104E5000CB11EE5795EFA0EC42482AEEDE6567FADB
:104E60005AB77A14F81BD7D7406D81255A4E87C997
:104E70003109FDE0EF05064459254FBF1AFDD893CF
:104E8000E7C085DB0573EDB04CE5FDD20E3B2F4F3F
:104E9000EB0E40E9283E2D64EF275A502E04659C06
:104EA00064471C1395BE54540725AC833D67E3A8A3
:104EB000412C8F43BAC659746CA41A9312D69DB76D
:104EC000DA9D40F099B99DA65CA4089BEFFF5CDADF
:104ED0003A0B0F6E85936F5B2DFB910358DA3725E4
:104EE00059F2327A3525E2469DBA4359B3B5B86DC9
:104EF00001ABF25F6E08BBC554867667C5B6D8466F
:104F00009DECE4BF2C7F4E6B8FA84C30BB4C8300D4
:104F100077B89912C3C539B58F89EC9B3048D182D7
:104F200022DFC076E987D988696BBDF5329B1614FC
:104F3000FD8238441E61A9E28E713EABCEBCB887BB
:104F4000D802C5D6F853F911171A3078B58EE2E8B1
:104F50008E89403D1D211F6F65CE004A9B088DB68E
:104F60002350D75020B5C38B94885B19D72EE1EF1F
:104F7000D95FCA0409C7FF4D10EB0C67580451C331
:104F8000EF6A93AE70E66FEBD3081D82B8C492ACA3
:104F9000CC9CD201105ACF3DEB744881E178A182BC
:104FA00026D4D26A8073767082855C5CE3244F27B6
:104FB00023827064D2AC4C2FD50AF2ADB69275EF55
:104FC000EE1C3D87222C47CB066C7B0A4A9FB29D84
:104FD00096E059351215E28CBD9A466B25E12A1DE3
:104FE0007BA6CEB9C6DF24CA3CBE8CF7EA35B1B782
:104FF000B04B7D1F7C92659C06B07D5397EC6DB1E4
:10500000B5A4386104737151C3938C8BBE3DC1F458
:105010000C395DC98D8DF1957EC424E1A412D308AD
:1050200044B3B5F4690FAF95853243C56AB8EBE276
:1050300011EA5BC0D8EA0EA3339684455385590D17
:10504000C76CA0B8FAD9FB2ECF785C773698CD8B99
:105050002274470158CC6CEF8E75A1B04781D539C9
:105060004268F4F96177615049F66893C898E76D32
:105070005F846A4E6133897EBECC3123C25F719AF0
:105080007174177416F6B99E7F4D22693F7CED3E10
:10509000C1D31F77503AAD7EA68E92656726AB20AE
:1050A000A513592A0D7C5979745E574220B2D3A3B7
:1050B0007AE53A67762A693FA78E9188CD3F5142BB
:1050C00051B8F8813FE163B731BEC122EEDA3E76D6
:1050D00035769F1C59C86C31DC2974428B1B7F4488
:1050E00029A01B232B7453A1F37B3FBF3E5872684A
:1050F000A47DC908730EEC915FC308F60233DEBFCE
:10510000833DF1D0F051ED22FC62D422DA64CCCCA4
:10511000D772CB9C57BA96163A0522537124AD3EEE
:10512000D8A690E96FDA381DAAA868F0C8A1034490
:105130003753FB5F954AE89272DD2BE47D98EFD1FF
:10514000137D91929CAFCF0984AFD2138A157EFE56
:105150005EC4A013D0BD3EC2A6A7065A8B161A97EE
:105160002FB0A803D905BFEA9A2CCD7A32C5D569EC
:105170005B4E1F0536381B56FBB362DB83B7192421
:10518000B44FC51A840E175E5841644D46EEF46C58
:105190005EB717BA58C391F3F1AE6DBD9ED54535D4
:1051A000C74EF3E8E0AB13BC92ADF4295925C16FAB
:1051B000409F545776666C0ABF8735B46DE5AD4D98
:1051C000075BCC5D0840749AD09D290D52050158AB
:1051D00030BE5D45B32F9DB7EF820448A33F3B0D22
:1051E0004F0F6956EA4FE48DC86CF63A06CA8F3500
:1051F000C8BE2C1F9FD8CE9A78DEAC9966BABED8AE
:1052000055B5796334A81DB91EEE7221F5E2A818D0
:10521000A8D1CE9C564FFA692AEED258DA8F1112D5
:10522000C19FF460AA128ACCB7BD932DB4CAC789B6
:105230008548905919E3A3A0BAE602B99A6021AE55
:10524000A278F584FAD55954FE7ACF19443DE16E1F
:105250003028DBCD341213149626C4776B51D9FD58
:1052600091BCD69776A3D334175F4CAA3959125400
:10527000D49E2C7B5C5FD78309995F510E5C9D8324
:105280005C1B9D2B9E595A65EA88BAF9D5A26EA47B
:1052900071C8159FB07077284790A783FE2A2E7695
:1052A0005D1CD5F3C7465ED0AD298FAE232B53537B
:1052B0009F11E57CC77BC62EC26A54F1093D3CAC08
:1052C000D60D6D8EFC07A8B63CAD385AF5CA3C9099
:1052D000A4D0B5FB5C619D33E2B5B8A269A6C279E2
:1052E000EF2F2497508AAC4985A04AB7C8ADFD611D
:1052F00096287DCB7DB3808571D1AC197CDA9E7EFA
:105300002DD4F625DE55C9D01A4AC8A61586B3F4A1
:1053100025F716CFC3B413A6F9668FF0D504F86647
:10532000AD9968F72121D221D3560FA2054B07A8CA
:105330004E4FC52451A8526239F33CB0468705252B
:1053400088553CB65323208CADE9C3C7B41BE33A60
:10535000775ED7D2AE20C59546E6AC4773C6059DAD
:1053600061FCF4EB3027EC1648105E4083D919F34A
:10537000C1462E95B3FEDE02B29B0FCAAACA7E15A5
:105380005F2E4C57E25A91B4C87D37201C6900CA81
:105390009707566E125A8E5F4AE6C24259F0AFA97D
:1053A0000827EA8C2E945EB9B8AB2E82AA258F18F6
:1053B0001A66DD05DAC5C739B212909B9FEA313F04
:1053C0003364A636A4B8329FB2D3786D9F4BFEA04B
:1053D00037AF5DEF154392C0FAE3DE48A87A5BC1B0
:1053E000A7087713AA56076047569A0CD14CC843B2
:1053F000C830EFA1E2879C4106CA42C228553F331C
:105400001338C03D93A559DFA2BACFA40EDB1B9180
:10541000DC93492EB0689E062C617FFC0203874610
:1054200027A426AE393B2B2D887EA6729A1DDC4D13
:10543000CDF5887DD4556C7A77EC09450F398A0F04
:105440008EF642B8D918C9AD8B7361473F9923C214
:105450004BB4DB3C33CD5A1BB1A1BB8D787242F308
:10546000ECCBECAF806949F38AFF87ED6FA2F321A3
:10547000F190D750BC3549C2C77DEE0BB64BEAA1BF
:105480002E256DA6300A45DE5FE681E804E15876F8
:105490007A0F439489931475928F7FDA529FFCADF3
:1054A00069F8B0263510D775075BC8CA9B2948C371
:1054B0004CB9C7DEA0C07D3EDE5113535C1484633B
:1054C0003B93FDF4B3DA5E04E54238984136D35C91
:1054D000CBBED645A0A47EC7F844692DFCA09F6032
:1054E0008B3DB593A0421BCD87FE5C9A891D722F20
:1054F0002BAA0CAED7CED0F103C52963AB68668E5C
:105500009112EAABF4F3C0972DD8736CA70B730715
:10551000D8CCCF132D00663D463D85A63182C714F9
:105520006432E1C88A6D7AA7CC5585D90FD69D2102
:10553000CC494FB3D90E53582955BFB48535506A5D
:10554000716F248A34005704404C5DC5700225DC1D
:1055500086733A2AAB69792FCBD6C67D26BDFB76FA
:1055600050E4C5965E64F6063C1EC9BE8AC23C6B1A
:10557000745C62816B90A1CD3499642A3AA01EC6F6
:1055800033D7B2C25B1DC0BE10A9D0A5758E452F02
:10559000679AE4997614040E352A86FE01540CD6D7
:1055A000B7AFCA7C3736A9CD31E3B6A5059CA54077
:1055B0006341F57420EDB49EFBC9FED79A772BADFD
:1055C0002F4168DC8FFC490DC9DA40327FC0BD86AF
:1055D0004833A910B2BC23937BDD1BA248CDE58FD5
:1055E000BEFBE07834F18CDB9806976ED4BB3318A1
:1055F000628E00BFD68E219A0248E492B3AD6F2F1F
:1056000056B0A0E6A68ECCC2B8DF94A98ACF486E69
:10561000E67A418105C477ED465E4AE5E5DBE9FAC5
:10562000CF4C694D8B508258E7985FF7AB3E597964
:10563000B90C868A97975C30DA138A3D176140333C
:10564000CA2A6AE6FCDB9A9FFD460CAA66D8275751
:105650002259DF40AE332A4055DB919350F0BE0013
:10566000455C38460C0A5427D50FEAFD94EA139995
:1056700073277152A0664ACD3B8B5D4F3B5554CB8F
:10568000EC0A1BE81912CFD5E098056A86A40A5CDB
:10569000783BB1F4C21960B5D6DA4C82D5A6485E23
:1056A000FD753EF32F243B1F90E3027A79AC3B85D6
:1056B000D6B285C1C916B46FC5F937C897D5F17888
:1056C000C4EB61A8682F06F83D53E2006439C7DCDB
:1056D000DAFA6A9D84F0394C704FF7FEE0600B32C5
:1056E00084C5669DCB0D23D47867FC99D87D5BE893
:1056F000712F8A458CA59AF775A523B1EF32803AB0
:10570000F2E9791F12E9C358713F59D79F462F34E8
:1057100096707EB6A729A13DD4175C54360B3FA8DE
:105720005D02E8BE042D1B7B495BCC05BAFD2A5DFA
:1057300097B5814927DEBD6A8F5F18DC72C6EC32EF
:105740005F2A334443C8F8550C6CB662ACFF99EA43
:10575000A5378C0DECED77A154800946C715E42FD1
:10576000DBF5741D5EFB163D6552E89D5DEAF71C96
:1057700068E73E22AD920306E92615BD7613094877
:10578000BF9BB5F680F4CBE57A12A31368B8E49A10
:10579000F3B71FB9DC75BBEE8C70A2329030F26E9D
:1057A000218A2046A76BA76FF957CFCD7E30FBC962
:1057B0005A610717684DFB357D369A20668E2CCBD3
:1057C000C75C43DE5AD31D533F56D3B23A14589F99
:1057D000D39AFD423A47C71F86C93066399611C42D
:1057E0005C579A64D13ED975D45B91C7F76214BBFC
:1057F00088B08E9CA48F8F652A741C7DD7A0DC098D
:10580000AB7C8BCD4193655174F960F754BF8FEF3A
:1058100075F1D38A00D6479C8D4BA5F00FE1F48F2C
:10582000F00507B998A1C07E7ECA9133DF6105D823
:105830003C2952D35F21BD9B51BAA5D71E4EE9C664
:1058400096C96D5B5FE5F0750CE86D6EC54703C4E6
:10585000282CC5B18A3B6336A13652743BFD4D09F5
:10586000DB03969B605A4ECA6A8CC994CF2F0853AB
:10587000354B66A6EB4076A0754BF3C6D7A4A37F45
:10588000976CDD4B6F50D28E7DB4ACDF1097ADE7D7
:105890004177D81B130BF9209789A6CE70181D8B62
:1058A00062B4E9A44A2788C59E473DACB177C37767
:1058B000C9CD6405C5B675602BE187DC9EEBE3FBC3
:1058C000B6AEA39951EF2AC4F720B8E94886CCE6D2
:1058D000CFE3183F817A6269CA789E369A2A3305E7
:1058E000F99FFEAE940917B50EC20856FE0288FB5A
:1058F00035150B5EA8384FEBC33387C3251EFC114B
:10590000A0EE3C06A476C696B051DC38D0014ADB46
:105910005B19E385234510FAF0481550FB66BE6716
:105920005B5B22EE996B5637B40565F9113F4A234C
:10593000CD0E2F7BC5DCAF1DB977EF96C94A23CEBC
:10594000A2A8881E036D4013AAD5BE725D0CE72A7B
:1059500080E0FA1D49C2E56736608B6CCBCE0895B6
:105960008014E7EBB399D5DC8FCCBCE9D4ECC099BB
:105970005B959D6F90279075094B8C1FC8293181CD
:10598000FFAC9E66DCE9426EB6BB97B403E412C27C
:10599000260082F21031AB6D71422F2EEB7401950F
:1059A000969A9BE12619E783E3501E03903F41003E
:1059B0006FCCE98907C0E6EC918A2F3A4D502CB59F
:1059C000FAD2BC2757AF9B6AFA83603635F347F8A3
:1059D000BB14620D3E784F1385428C6C1A5CCB531E
:1059E0004468861218180DE45AB31A0A8454915B5D
:1059F000096682E77618F43200ACC06BD7EB17CE9D
:105A0000CFCE2F091F0E7F82B68C3C535EACF4A51F
:105A1000534A6C1CEC73A262E309A69B9A3F03797C
:105A2000ACC05DFE723E267124E6C80CDC5A2292A0
:105A300058932AFD33CE8BB7E74DB676AF8F19DD7D
:105A40005EDB42DCD062E87EC91C71B7BC755008D1
:105A500042979C34485A83E76CFF6DB565E33E245A
:105A6000045629D8B7F2A0A0ED1D82D27297521A1F
:105A7000C8339E241B9F54412ABF7894FBEE89D4DF
:105A8000550C0B8EDD228A0E5C36039462148EAAAE
:105A90006A6183D0F26D6C6782D68EFEDDA71C50E2
:105AA000562BAA9D11BD2B7718162CDB95768149B4
:105AB000268EF87AD37A9159D5D4DAB4D524064A09
:105AC0000DE65F269D6746D8552FD4054FE6F3F2C5
:105AD000917F6DB964612CA7FF83C23EFE93C01114
