:100000000C9446000C9458000C9458000C94580022
:100010000C9458000C9458000C9458000C94580000
:100020000C9458000C9458000C9458000C945800F0
:100030000C94B4010C9458000C9458000C94580083
:100040000C9458000C9458000C9458000C945800D0
:100050000C9458000C9458000C9458000C945800C0
:100060000C9458000C9458000C9458000C945800B0
:100070000C9458000C9458000C9458000C945800A0
:100080000C9458000C9458000C94580011241FBE76
:10009000CFEFD0E1DEBFCDBF23E0A0E0B1E001C0F3
:1000A0001D92A531B207E1F70E942F040C94AB0416
:1000B0000C940000809162008260809362008091C5
:1000C00003018130F9F084E78093060180910301F8
:1000D00080930701809102018093080180910101C2
:1000E000809309018091000180930A0165E070E02E
:1000F00086E091E00E94AD03809162008D7F809345
:10010000620008958091620080688093620080910F
:10011000610080688093610082B38F7182BB88E048
:100120000E944502813009F451C090E09093020191
:1001300082B3806E82BB809162008068809362008F
:1001400080E20E944502813009F45EC08091620025
:100150008F778093620080E20E944502813009F42B
:1001600044C090E080916200806880936200909328
:100170000101959882B3806C82BB80916200806897
:100180008093620080E20E9445028130B1F180914B
:1001900062008F778093620080E20E944502813086
:1001A000E9F090E080916200806880936200909313
:1001B00000018091620080688093620082B38F7535
:1001C00082BB969A81E0809304017DCF88E00E94F3
:1001D0006A0291E0813009F0A9CFA7CF80E20E94A6
:1001E0006A028130F1F291E0DDCF80E20E946A0282
:1001F000813009F4B6CF91E0B5CF80E20E946A0267
:10020000813029F291E0CECF80E20E946A028130F3
:1002100009F49CCF91E0A6CFCF93809162008260D9
:100220008093620080910301813019F182B38F7550
:1002300082BB969A8091620080688093620084E617
:10024000809306011092070140E052E06FEF70E0EA
:1002500088E091E00E94A40462E072E086E091E010
:100260000E94AD03809162008D7F80936200CF91E8
:100270000895809104018130C9F660910B0380914B
:100280000A03823479F1833461F08134B9F182B3A5
:100290008F7582BB969A60E088E091E00E942E0202
:1002A000C5CF6034B8F5809162008F77809362008B
:1002B000C1E0959882B3806C82BB88E091E00E9497
:1002C0002E0282B38F7582BB969A809162008068FD
:1002D0008093620084E680930601C0930701C111F8
:1002E000BBCFB2CF603400F5809162008F778093EE
:1002F0006200C1E082B3806E82BBDFCF809162007A
:100300008068809362006031C8F4C1E082B38F716D
:1003100082BBD3CF6054809162008068809362007A
:10032000603470F4C1E0C5CF605480916200806891
:1003300080936200603438F4C1E0DCCFC0E0E6CFE7
:1003400060E0C0E0B6CF60E0C0E0D4CF80910803A9
:10035000813009F008950C945A008091080383308D
:1003600009F008950C940C011F920F920FB60F9292
:1003700011248F939F93059B27C010920301109225
:10038000020110920101109200011092040180916B
:1003900005018F5F8A3078F010920501909162001C
:1003A00081E08927809362009F918F910F900FBE0B
:1003B0000F901F901895809305019F918F910F903A
:1003C0000FBE0F901F90189581E0809303018091DC
:1003D0006200816080936200109205019F918F916D
:1003E0000F900FBE0F901F9018959B01AC0160E01D
:1003F00078E087E090E00E947304BA01A9014150BF
:10040000510961097109929ABB27A72F962F852F51
:10041000809398004093990010929B0088E180930C
:100420009A0086E080939D00089590919B0095FF2F
:10043000FCCF80939C0008958BB39FEF9BBBE5E6B8
:10044000F0E080818760808385B395BB80EC85BFB9
:100450008EE480936D0010926C000895603478F4FF
:10046000E62FF0E0FE2FEE27FF0FDC019F013E5745
:10047000F05881918D93E217F307D9F7089540E082
:1004800052E06FEF70E00C94A40490E0982F88275E
:10049000990F990F0097E1F020E030E00EC0F901CC
:1004A000F058408150E0B90177276417750771F45F
:1004B0002F5F3F4F2817390759F037FFF0CF4FEF25
:1004C00050E0B90177276417750791F381E008952B
:1004D00080E0089590E0982F8827990F990F009752
:1004E00089F020E030E005C02F5F3F4F2817390723
:1004F00049F037FDF9CFF901F05840814F3FA1F3A2
:1005000080E0089581E00895E1E6F0E080818F7D4C
:100510008083A2E6B0E08C9180628C938C9180689D
:100520008C9380818068808382B38F7582BB969A1A
:1005300081B3806E81BB86E886B910928E0087E613
:1005400087B90895369A3699FECF85B1089580917E
:1005500061008F7780936100809162008F77809334
:1005600062008AE020E0EFEFF7E43197F1F700C096
:100570000000369A3699FECF95B1913808F02F5F7A
:10058000815089F780916200806880936200809139
:10059000610080688093610081E0253008F080E090
:1005A0000895E2E6F0E080818E7F808380818D7FF8
:1005B0008083E1E6F0E080818360808308959C0180
:1005C000A0E2BCE10E94950428EE33E040E050E058
:1005D0000E947304215031091FBC8DE08EBD109222
:1005E0007A001DBC1CBC3BBD2ABD80E186BF87B71D
:1005F000806187BF08951092140310921303089529
:10060000FF920F931F93CF93DF93EC01FF24F3949A
:1006100080919B0087FF22C090919C009B3F51F1ED
:100620009C3F29F19A3F91F08091130381116CC096
:100630008091140321E0280F20931403FE01E80F9A
:10064000F11D9083809114038A3010F310921403EB
:100650001092130380919B0087FDDECFFB01108277
:1006600080E0DF91CF911F910F91FF900895F0925C
:100670001303CECF80911403833050F29091140372
:1006800080911403FE01E90FF11D3297008110E003
:10069000102F0027FE01E80FF11D31978081082BF4
:1006A000A0911403A23009F43DC0FE01B0E01297FE
:1006B000AC0FBD1F20E030E09191392748E050E0B9
:1006C00005C0220F331F4150510959F037FFF9CFB0
:1006D000220F331F81E2282780E13827415051093A
:1006E000A9F7AE17BF0741F70217130709F090CF1C
:1006F000809114038250FB0180838881DF91CF9128
:100700001F910F91FF9008958091140321E0280F0D
:1007100020931403FE01E80FF11D90959083109231
:10072000130390CF20E030E00217130709F070CFD9
:10073000DFCFCF93DF93EC018881882331F02196BE
:100740000E94150289918111FBCF8DE00E94150254
:100750008AE0DF91CF910C941502EF92FF920F93F4
:100760001F93CF93DF9300D0CDB7DEB7611571052E
:1007700009F46EC08C017C01E60EF71EFC0180E0DE
:1007800090E02191922728E030E005C0880F991F62
:100790002150310959F097FFF9CF880F991F41E295
:1007A000842740E1942721503109A9F7EE15FF0570
:1007B00041F799838A838AEF0E94150207C00E943D
:1007C00015020F5F1F4FE016F10699F0F8018081C6
:1007D00096E0980F933098F78CEF0E941502F8017D
:1007E000808180950E9415020F5F1F4FE016F10671
:1007F00069F7198186E0810F8330B0F0812F0E9464
:1008000015021A8186E0810F8330D0F0812F0E947B
:1008100015028BEF0F900F90DF91CF911F910F91E9
:10082000FF90EF900C9415028CEF0E941502812F1F
:1008300080950E9415021A8186E0810F833030F77F
:100840008CEF0E941502812F80950E941502E1CF46
:1008500019821A828AEF0E94150210E0CFCF0E94FF
:100860001C020E94D1020E94840260E071EE80E0CE
:1008700090E00E94F50184E190E00E94DF0278940C
:100880000E94FB02109202011092010110920001DD
:1008900010920401809162008068809362008091D0
:1008A000610080688093610068E073E089E093E014
:1008B0000E940003843681F08437B1F780910803E9
:1008C000813091F70E945A0068E073E089E093E07C
:1008D0000E940003843681F780910803833021F75A
:1008E0000E940C01E1CFA1E21A2EAA1BBB1BFD0145
:1008F0000DC0AA1FBB1FEE1FFF1FA217B307E407FF
:10090000F50720F0A21BB30BE40BF50B661F771F56
:10091000881F991F1A9469F7609570958095909536
:100920009B01AC01BD01CF010895A29FB001B39F0F
:10093000C001A39F700D811D1124911DB29F700DE8
:10094000811D1124911D0895DC0101C06D9341505A
:0A0950005040E0F70895F894FFCF3F
:00000001FF
