:100000000C9446000C9463000C9463000C94630001
:100010000C9463000C9463000C9463000C946300D4
:100020000C9463000C9463000C9463000C946300C4
:100030000C9454030C9463000C9463000C946300C0
:100040000C9463000C9463000C9463000C946300A4
:100050000C9463000C9463000C9463000C94630094
:100060000C9463000C9463000C9463000C94630084
:100070000C9463000C9463000C9463000C94630074
:100080000C9463000C9463000C94630011241FBE55
:10009000CFEFD0E1DEBFCDBF11E0A0E0B1E0E0E204
:1000A000F2E102C005900D92A430B107D9F723E028
:1000B000A4E0B1E001C01D92A132B207E1F70E94B5
:1000C0006B080C940E090C94000080916200826011
:1000D00080936200809109018130F9F084E7809378
:1000E0000C018091090180930D018091080180939A
:1000F0000E018091070180930F018091060180938A
:10010000100165E070E08CE091E00E94E9078091C9
:1001100062008D7F80936200089580916200806804
:10012000809362008091610080688093610082B357
:100130008F7182BB88E00E94E603813009F451C0D0
:1001400090E09093080182B3806E82BB8091620040
:1001500080688093620080E20E94E603813009F4A7
:100160005EC0809162008F778093620080E20E947F
:10017000E603813009F444C090E080916200806819
:100180008093620090930701959882B3806C82BB44
:100190008091620080688093620080E20E94E603A2
:1001A0008130B1F1809162008F778093620080E2AC
:1001B0000E94E6038130E9F090E08091620080685F
:1001C0008093620090930601809162008068809322
:1001D000620082B38F7582BB969A81E080930A0198
:1001E0007DCF88E00E940B0491E0813009F0A9CF17
:1001F000A7CF80E20E940B048130F1F291E0DDCFC5
:1002000080E20E940B04813009F4B6CF91E0B5CFB3
:1002100080E20E940B04813029F291E0CECF80E28F
:100220000E940B04813009F49CCF91E0A6CFCF93BC
:100230008091620082608093620080910901813028
:1002400019F182B38F7582BB969A809162008068A3
:100250008093620084E680930C0110920D0140E0CF
:1002600052E06FEF70E08EE091E00E94070962E0DB
:1002700072E08CE091E00E94E907809162008D7F3E
:1002800080936200CF91089580910A018130C9F670
:100290006091110380911003823479F1833461F00D
:1002A0008134B9F182B38F7582BB969A60E08EE09B
:1002B00091E00E94CF03C5CF6034B8F58091620011
:1002C0008F7780936200C1E0959882B3806C82BB87
:1002D0008EE091E00E94CF0382B38F7582BB969A25
:1002E0008091620080688093620084E680930C01B4
:1002F000C0930D01C111BBCFB2CF603400F5809126
:1003000062008F7780936200C1E082B3806E82BB0F
:10031000DFCF809162008068809362006031C8F412
:10032000C1E082B38F7182BBD3CF605480916200F1
:10033000806880936200603470F4C1E0C5CF60547F
:1003400080916200806880936200603438F4C1E07C
:10035000DCCFC0E0E6CF60E0C0E0B6CF60E0C0E058
:10036000D4CF809162008260809362008091090105
:100370008130D9F082E780930C018091090180934C
:100380000D018091050180930E01809104018093FD
:100390000F0164E070E08CE091E00E94E907809139
:1003A00062008D7F809362000895809110038A35EA
:1003B000D9F178F4863379F18435E9F40E94250483
:1003C0008093050188EF9FE10E943304809304012C
:1003D0000EC08437A9F08A3771F40E9425048093F7
:1003E000050180E098E00E9433048093040181E0DD
:1003F00080930A01BFCF1092050110920401F7CF3C
:100400000E9425048093050188EF97E00E94330441
:1004100080930401ECCF1092050180E090E80E94E7
:10042000330480930401E3CF0E94250480930501E7
:1004300080E090E20E94330480930401D8CF809141
:100440006200826080936200809109018130B1F086
:1004500091E083E680930C018091090180930D0166
:1004600090930E0163E070E08CE091E00E94E90758
:10047000809162008D7F80936200089580911003C7
:1004800090911103843791F0843529F091E081E057
:1004900080930A01DECF9536B9F0923709F1943690
:1004A00059F488EF9FE10E947A04F0CF9536A9F0C5
:1004B000923721F0943671F090E0E9CF88EF97E021
:1004C0000E94860491E0E3CF88EF9FE10E946E04D2
:1004D00091E0DDCF88EF97E0E6CF88EF97E0F6CFA9
:1004E00088EF9FE1EDCF0F931F93CF93DF93CDB7AD
:1004F000DEB727970FB6F894DEBF0FBECDBF809151
:10050000620082608093620080910901813031F144
:1005100087E680930C018091090180930D01109270
:100520000E0187E0EFE0F1E0DF011D928A95E9F727
:100530006AE070E08CE091E00E94E907809162003F
:100540008D7F8093620027960FB6F894DEBF0FBEB2
:10055000CDBFDF91CF911F910F910895809110032E
:100560008435E9F08437A1F68E010F5F1F4FB80183
:1005700088EF97E00E94E40587E680930C01809164
:10058000090180930D0181E080930E0187E0F8015D
:10059000AFE0B1E001900D928A95E1F7C9CF8E01ED
:1005A0000F5F1F4FB80188EF9FE10E94E405E4CF81
:1005B000CF93DF93CDB7DEB727970FB6F894DEBFA2
:1005C0000FBECDBF809162008260809362009091E7
:1005D000100387E0E1E1F3E0DE01119601900D9256
:1005E0008A95E1F7809109018130F1F090E083E78D
:1005F00080930C018091090180930D0190930E016D
:1006000063E070E08CE091E00E94E9078091620075
:100610008D7F8093620027960FB6F894DEBF0FBEE1
:10062000CDBFDF91CF910895943559F09437F1F60D
:10063000BE016F5F7F4F88EF97E00E94E50491E075
:10064000D6CFBE016F5F7F4F88EF9FE10E94E50428
:1006500091E0CDCF80910E03813009F008950C9484
:10066000650080910E03833009F008950C94170102
:1006700080910E03823009F008950C94B1018091AD
:100680000E03833009F008950C941F0280910E032D
:10069000823009F008950C94730280910E03893022
:1006A00009F008950C94D8021F920F920FB60F9282
:1006B00011248F939F93059B27C0109209011092DC
:1006C0000801109207011092060110920A01809110
:1006D0000B018F5F8A3078F010920B0190916200CD
:1006E00081E08927809362009F918F910F900FBEC8
:1006F0000F901F90189580930B019F918F910F90F1
:100700000FBE0F901F90189581E080930901809192
:10071000620081608093620010920B019F918F9123
:100720000F900FBE0F901F9018959B01AC0160E0D9
:100730007AEC88E090E00E94D608BA01A901415005
:10074000510961097109929ABB27A72F962F852F0E
:10075000809398004093990010929B0088E18093C9
:100760009A0086E080939D00089590919B0095FFEC
:10077000FCCF80939C0008958BB39FEF9BBBE5E675
:10078000F0E080818760808385B395BB80EC85BF76
:100790008EE480936D0080E880936C00089560344F
:1007A00078F4E62FF0E0FE2FEE27FF0FDC019F012B
:1007B0003E57F05881918D93E217F307D9F70895CA
:1007C00040E052E06FEF70E00C94070990E0982F42
:1007D0008827990F990F0097E1F020E030E00EC0D4
:1007E000F901F058408150E0B90177276417750787
:1007F00071F42F5F3F4F2817390759F037FFF0CFBB
:100800004FEF50E0B90177276417750791F381E046
:10081000089580E0089590E0982F8827990F990F08
:10082000009789F020E030E005C02F5F3F4F281788
:10083000390749F037FDF9CFF901F05840814F3FB2
:10084000A1F380E0089581E0089580910080982FC1
:10085000909590930080209100808093008081E0AB
:10086000921380E00895A1E0B1E040E00097E9F044
:1008700020E030E037FD03C0F901F05840832F5FDE
:100880003F4F82179307B1F720E030E005C02F5F9C
:100890003F4F8217930749F037FD1EC0F901F0580A
:1008A00050815417A1F380E0089521E0A430B207ED
:1008B00011F04D91DBCF009769F020E030E04FEF71
:1008C00037FD03C0F901F05840832F5F3F4F821777
:1008D0009307B1F781E008955FEFE3CF9C012F5FAD
:1008E0003F4F37FD06C0FC01EF5FFF4780818F77E8
:1008F000808308959C012F5F3F4F37FD06C0FC01A8
:10090000EF5FFF4780818068808308959C012F5F9F
:100910003F4F37FD06C0FC01EF5FFF474081406855
:100920004083AC014C5F5F4F57FD06C0FC01EC5F9C
:10093000FF4760816F7B608397FD04C060E8FC0126
:10094000F0586083BC01695F7F4F77FD04C0FC01F4
:10095000E95FFF471082BC016A5F7F4F77FD05C0EA
:1009600061E0FC01EA5FFF476083BC016B5F7F4F82
:1009700077FD05C061E0FC01EB5FFF47608357FD39
:1009800005C041E0FC01EC5FFF474083AC014D5FD7
:100990005F4F57FD04C0FC01ED5FFF471082AC01C3
:1009A0004E5F5F4F57FD04C0FC01EE5FFF471082B2
:1009B00037FD05C020E8FC01EF5FFF47208397FD6E
:1009C00003C0FC01F05810820895FB0120812436F9
:1009D00008F01082218121502C3010F021E0218379
:1009E000228121502F3110F021E0228323812150D8
:1009F000273010F021E023832481283108F014826D
:100A000025812C3308F0158226812C3308F01682BC
:100A100097FD05C0DC01B0582C9120682C939C01F7
:100A2000295F3F4F37FD15C030812DEC329F212DBE
:100A3000112426952695269560E1269FA001112474
:100A40006AE0269F30191124342BDC01A95FBF47CF
:100A50003C939C012A5F3F4F37FD15C031812DEC3F
:100A6000329F212D112426952695269560E1269FFB
:100A7000A00111246AE0269F30191124342BDC01D7
:100A8000AA5FBF473C939C012B5F3F4F37FD15C0CA
:100A900032812DEC329F212D112426952695269505
:100AA00060E1269FA00111246AE0269F30191124DD
:100AB000342BDC01AB5FBF473C939C012C5F3F4F65
:100AC00037FD15C033812DEC329F212D1124269541
:100AD0002695269560E1269FA00111246AE0269FB5
:100AE00030191124342BDC01AC5FBF473C939C01CF
:100AF0002D5F3F4F37FD15C034812DEC329F212DE6
:100B0000112426952695269560E1269FA0011124A3
:100B10006AE0269F30191124342BDC01AD5FBF47FA
:100B20003C939C012E5F3F4F37FD15C035812DEC66
:100B3000329F212D112426952695269560E1269F2A
:100B4000A00111246AE0269F30191124342BDC0106
:100B5000AE5FBF473C939C012F5F3F4F37FD18C0EE
:100B6000DC01AF5FBF472C91368127FD1AC02DEC09
:100B7000329F212D112426952695269560E1269FEA
:100B8000A00111246AE0269F30191124342B3C93D4
:100B900097FD06C0FC01F05890819F7790830895DF
:100BA00008952DEC329F212D11242695269526950A
:100BB00060E1269FA00111246AE0269F30191124CC
:100BC000432B40684C93E4CFFB0197FD05C0DC014B
:100BD000B0582C9120642C939C01295F3F4F37FD26
:100BE00089C0DC01A95FBF473C912C9132953F70D1
:100BF0002F704AE0349F200D112420839C012A5F2E
:100C00003F4F37FD7EC0DC01AA5FBF472C913C916E
:100C100022952170220F422F440F440F240F3F7062
:100C2000230F21839C012B5F3F4F37FD71C0DC01F7
:100C3000AB5FBF472C913C91207326952695269556
:100C4000422F440F440F240F3F70230F22839C0137
:100C50002C5F3F4F37FD63C0DC01AC5FBF472C9179
:100C60002C91277023839C012D5F3F4F37FD5EC081
:100C7000DC01AD5FBF472C913C91207326952695F2
:100C80002695422F440F440F240F3F70230F2483D7
:100C90009C012E5F3F4F37FD50C0DC01AE5FBF4768
:100CA0002C913C912077269526952695422F440F2E
:100CB000440F240F3F70230F25839C012F5F3F4F6C
:100CC00037FD42C0DC01AF5FBF472C913C912077DC
:100CD000269526952695422F440F440F240F3F70EA
:100CE000230F268397FD05C0FC01F05880818F7B80
:100CF0008083089525EA20839C012A5F3F4F37FFB8
:100D000082CF29E121839C012B5F3F4F37FF8FCF9B
:100D10002DE222839C012C5F3F4F37FF9DCF27E0C0
:100D200023839C012D5F3F4F37FFA2CF2DE2248309
:100D30009C012E5F3F4F37FFB0CF25E525839C01F7
:100D40002F5F3F4F37FFBECF25E5CBCF97FD05C0C7
:100D5000FC01F0588081682B6083089597FD06C0E0
:100D6000FC01F05880816095682360830895FA0142
:100D70009081981710F0691710F4FA018083089594
:100D8000E1E6F0E080818F7D8083A2E6B0E08C9187
:100D900080628C938C9180688C9380818068808342
:100DA00082B38F7582BB969A81B3806E81BB86E8D1
:100DB00086B910928E0087E687B90895369A3699DB
:100DC000FECF85B10895809161008F778093610097
:100DD000809162008F77809362008AE020E0EFEFDD
:100DE000F9E53197F1F700C00000369A3699FECF49
:100DF00095B1913808F02F5F815089F7809162009A
:100E000080688093620080916100806880936100B7
:100E100081E0253008F080E00895E2E6F0E080818E
:100E20008E7F808380818D7F8083E1E6F0E080810A
:100E30008360808308959C01A8E2B3E20E94F808D1
:100E400028EE33E040E050E00E94D60821503109FE
:100E50001FBC8DE08EBD10927A001DBC1CBC3BBD3A
:100E60002ABD80E186BF87B7806187BF0895109251
:100E7000200310921F030895FF920F931F93CF93A7
:100E8000DF93EC01FF24F39480919B0087FF22C045
:100E900090919C009B3F51F19C3F29F19A3F91F02A
:100EA00080911F0381116CC08091200321E0280FE5
:100EB00020932003FE01E80FF11D90838091200311
:100EC000803110F31092200310921F0380919B0039
:100ED00087FDDECFFB01108280E0DF91CF911F9173
:100EE0000F91FF900895F0921F03CECF80912003C1
:100EF000833050F29091200380912003FE01E90F8E
:100F0000F11D3297008110E0102F0027FE01E80F3D
:100F1000F11D31978081082BA0912003A23009F4A4
:100F20003DC0FE01B0E01297AC0FBD1F20E030E0E5
:100F30009191392748E050E005C0220F331F4150FE
:100F4000510959F037FFF9CF220F331F81E22827CB
:100F500080E1382741505109A9F7AE17BF0741F783
:100F60000217130709F090CF809120038250FB01F4
:100F700080838881DF91CF911F910F91FF90089519
:100F80008091200321E0280F20932003FE01E80F29
:100F9000F11D9095908310921F0390CF20E030E0D8
:100FA0000217130709F070CFDFCFCF93DF93EC0167
:100FB0008881882331F021960E94B503899181119F
:100FC000FBCF8DE00E94B5038AE0DF91CF910C94B6
:100FD000B503EF92FF920F931F93CF93DF9300D04F
:100FE000CDB7DEB76115710509F46EC08C017C01C7
:100FF000E60EF71EFC0180E090E02191922728E0A8
:1010000030E005C0880F991F2150310959F097FF32
:10101000F9CF880F991F41E2842740E1942721509E
:101020003109A9F7EE15FF0541F799838A838AEF05
:101030000E94B50307C00E94B5030F5F1F4FE01663
:10104000F10699F0F801808196E0980F933098F7B7
:101050008CEF0E94B503F801808180950E94B50352
:101060000F5F1F4FE016F10669F7198186E0810FC7
:101070008330B0F0812F0E94B5031A8186E0810F82
:101080008330D0F0812F0E94B5038BEF0F900F902B
:10109000DF91CF911F910F91FF90EF900C94B503CA
:1010A0008CEF0E94B503812F80950E94B5031A81B1
:1010B00086E0810F833030F78CEF0E94B503812FDB
:1010C00080950E94B503E1CF19821A828AEF0E94AF
:1010D000B50310E0CFCF0E94BC030E940D070E9411
:1010E000C00660E071EE80E090E00E94950384E12C
:1010F00090E00E941B0778940E9437071092080125
:10110000109207011092060110920A01809162006C
:1011100080688093620080916100806880936100A4
:101120006EE073E08FE093E00E943C078736B1F0F9
:101130008836D8F0833791F1843749F1823781F7C7
:1011400080910E03823061F70E94B1016EE073E07E
:101150008FE093E00E943C07873651F780910E03A1
:101160008230F1F60E947302DBCF833649F0843679
:10117000B9F680910E03833099F60E941701D0CF03
:1011800080910E03833061F60E941F02C9CF8091C7
:101190000E03813029F60E946500C2CF80910E03B4
:1011A000893009F0BDCF0E94D802BACFA1E21A2E31
:1011B000AA1BBB1BFD010DC0AA1FBB1FEE1FFF1FFB
:1011C000A217B307E407F50720F0A21BB30BE40B4B
:1011D000F50B661F771F881F991F1A9469F7609592
:1011E0007095809590959B01AC01BD01CF0108954C
:1011F000A29FB001B39FC001A39F700D811D112458
:10120000911DB29F700D811D1124911D0895DC0167
:1012100001C06D9341505040E0F70895F894FFCF1E
:0412200000FF55AACC
:00000001FF
